:020000040800F2
:100000000000012005750008ED720008F972000873
:10001000FF720008057300080B7300080000000061
:100020000000000000000000000000001173000844
:100030001D730008000000002973000835730008D4
:100040005575000855750008557500085575000868
:100050005575000855750008557500085575000858
:100060005575000855750008557500085575000848
:100070005575000855750008557500085575000838
:100080005575000855750008557500085575000828
:100090005575000855750008557500085575000818
:1000A0005575000855750008557500085575000808
:1000B000557500080000000000000000557500089C
:1000C000557500080000000000000000557500088C
:1000D000000000005575000855750008000000007C
:1000E000557500085575000800000000000000006C
:1000F0000000000000000000000000000000000000
:10010000000000000000000000000000557500081D
:10011000000000000000000055750008557500083B
:100120005575000855750008557500085575000887
:1001300055750008000000000000000000000000ED
:100140005575000855750008557500085575000867
:100150005575000855750008557500085575000857
:100160005575000855750008557500080000000019
:1001700055750008557500080000000000000000DB
:1001800055750008557500085575000800000000F9
:1001C000044B05481B1A062B02D9044B03B11847F0
:1001D000704700BF7B000020780000200000000076
:1001E00005490648091A891001EBD171491002D05E
:1001F000034B03B1184770477800002078000020B7
:100200000000000010B5064C237843B9FFF7D8FF73
:10021000044B13B10448AFF300800123237010BDD9
:100220007800002000000000B47F000808B5084BEB
:100230001BB108490848AFF300800848036813B9A8
:10024000BDE80840CCE7064B002BF9D09847F7E70C
:10025000000000007C000020B47F0008780000202F
:100260000000000053B94AB9002908BF00281CBF8C
:100270004FF0FF314FF0FF3001F0F6B8ADF1080C50
:100280006DE904CE00F006F8DDF804E0DDE90223B4
:1002900004B070472DE9F0478C460D460446089E91
:1002A000002B51D18A4217466DD9B2FA82FEBEF1B7
:1002B000000F0BD0CEF1200C01FA0EF520FA0CFC49
:1002C00002FA0EF74CEA050C00FA0EF44FEA174A50
:1002D000250CBCFBFAF81FFA87F90AFB18CC45EA93
:1002E0000C4508FB09F3AB420AD9ED1908F1FF32BE
:1002F00080F02381AB4240F22081A8F102083D4406
:10030000ED1AA4B2B5FBFAF00AFB105544EA054415
:1003100000FB09F9A14509D9E41900F1FF3380F088
:100320000A81A14540F2078102383C44A4EB09044C
:1003300040EA08400021002E61D024FA0EF4002388
:1003400034607360BDE8F0878B4207D9002E54D02B
:10035000002186E821000846BDE8F087B3FA83F162
:10036000002940F08E80AB4202D3824200F2FA8034
:10037000841A65EB03050120AC46002E3FD086E8C9
:100380001010BDE8F08712B90127B7FBF2F7B7FAF2
:1003900087FEBEF1000F34D1EB1B3A0C1FFA87FC2D
:1003A0000121B3FBF2F8250C02FB183345EA0345A3
:1003B0000CFB08F3AB4207D9ED1908F1FF3002D26C
:1003C000AB4200F2D1808046ED1AA3B2B5FBF2F049
:1003D00002FB105543EA05440CFB00FCA44507D979
:1003E000E41900F1FF3302D2A44500F2B8801846A8
:1003F000A4EB0C0440EA08409DE731463046BDE8D6
:10040000F087CEF1200405FA0EF307FA0EF720FA72
:1004100004F83A0C25FA04F448EA0308B4FBF2F1B4
:100420004FEA184502FB11441FFA87FC45EA0445D0
:1004300001FB0CF3AB4200FA0EF409D9ED1901F1FE
:10044000FF3080F08A80AB4240F2878002393D4421
:10045000EB1A1FFA88F5B3FBF2F002FB103345EA02
:10046000034500FB0CF3AB4207D9ED1900F1FF384F
:100470006FD2AB426DD902383D44EB1A40EA0141DC
:100480008FE7C1F1200722FA07F88B4005FA01F443
:1004900048EA030320FA07FE4FEA134CFD404EEAF8
:1004A000040EB5FBFCF94FEA1E440CFB19551FFA6C
:1004B00083F844EA054509FB08F4AC4202FA01F26C
:1004C00000FA01FA08D9ED1809F1FF3043D2AC4225
:1004D00041D9A9F102091D442D1B1FFA8EFEB5FB5F
:1004E000FCF00CFB10554EEA054400FB08F8A04553
:1004F00007D9E41800F1FF3529D2A04527D90238E1
:100500001C4440EA0940A4EB0804A0FB02894C45C6
:10051000C6464D4615D312D056B1BAEB0E0364EB66
:10052000050404FA07F7CB401F43CC4037607460E2
:100530000021BDE8F0871846F8E69046E0E6C2459F
:10054000EAD2B8EB020E69EB03050138E4E728466E
:10055000D7E7404691E78146BEE7014678E7023893
:100560003C4445E7084608E7A8F102083D442BE76C
:1005700003685A004CBF43F0004323F00043184483
:10058000704700BF61B32DE9F84F01F1FF3A904683
:100590000646D146002707EB090404EBD474641027
:1005A000E50071190846FFF7E3FFA245834605F110
:1005B0000800304409D0FFF7DBFFC34500F1FF30EE
:1005C00005D8404509D2671CE5E7C34505D9A742D0
:1005D00002D004F1FF39DEE700210846BDE8F88FBC
:1005E00008467047012807D0022807D0044B00288E
:1005F0000CBF1846002070470248704702487047F9
:10060000E90C0008ED0C0008F10C000830B5244B93
:1006100083B004468D1E7BB301A92846AFF300804A
:1006200020B301992A46FFF7ADFF0146F0B1FFF76D
:100630009FFF4B68A064012B12D0002B01F1040036
:1006400020DBFFF795FF0023E06423650368002BA0
:100650001CDBFFF78DFF00232061184603B030BD7F
:10066000002323610523184603B030BD0023236116
:100670000923184603B030BD0A490B48091AC910AE
:100680000191CFE70123E0642365DFE7C3F3036053
:10069000FFF7A8FF0028206114BF00230923DCE72F
:1006A00000000000C0910008188E00080368DA07F7
:1006B00010B5044606D49B0700F1480009D500F0A8
:1006C00051FC2368590709D51A070ED5DB0613D547
:1006D00010BD00F03FFC23685907F5D404F1D000A9
:1006E00000F048FC23681A07F0D404F5A87000F065
:1006F00049FC2368DB06EBD404F5E870BDE8104044
:1007000000F084BC036803B103441846704700BF7F
:1007100009207047704700BF70B504460D4608E0D9
:100720002B6C63612A4623692146012098470828DB
:1007300008D1296C2046FFF769FF06460028EFD054
:1007400000F094FE0728FBD13046296CFFF7E2FF4A
:10075000281D00F0F3FB00BF2DE9F0470C1D0546F6
:1007600092460FCCADF5727D03AE0FC60FCC0FC60F
:100770000FCC0FC694E80F0002ACD5F80C80D5F86A
:10078000189086E80F0000232846216C2360FFF7AD
:100790003DFFBAF1000F074614BF0A2609267FB1B4
:1007A000A36B46F010018DE810022A466364012015
:1007B0002B46C04778BB38460DF5727DBDE8F08703
:1007C000236C6B614FF4F07221467AA800F00AFFA7
:1007D0002B697AAA294630469847889B82468DE83D
:1007E0001002314663642A462B460120C04790B967
:1007F0004FF4F0727AA9204600F0F4FEBAF1080F27
:1008000006D1216C2846FFF701FF09260746C6E7F7
:10081000BAF1070F05D0092738460DF5727DBDE8FE
:10082000F0873846216CFFF775FF03A800F086FBC0
:10083000406C7047F0B5CB6B0B640E1D0F46044641
:100840000FCEF9B001AD0FC50FCE0FC50FCE0FC53E
:1008500096E80F004FF0FF3685E80F00009606E09F
:1008600023696A46214698470828054608D1109909
:100870002046FFF7CBFE0028F2D0092079B0F0BD6A
:100880006846FFF713FF062DF7D139462046FFF7DC
:1008900043FF00BF30B4DD6BC160826119461D6447
:1008A000002230BC58E700BF70B5C66843690B64CE
:1008B00026B10122FFF750FF00F0D8FD03690A4678
:1008C00004460D46014602209847072807D008280D
:1008D00003D129462046FFF71FFF00F0C7FD304631
:1008E000296CFFF717FF281D00F028FBC2681AB11A
:1008F000CA6B0A6400222FE79CE700BF704700BF65
:10090000836813B1014601201847704700B50429D8
:1009100007D8DFE801F00309060909000BB90F2A1F
:1009200005D902205DF804FB01205DF804FB00EB13
:10093000820218465368019A13605DF804FB00BFF9
:1009400010B584B0002303AC0A4600941946FFF7A3
:10095000DDFF039804B010BD00B5042907D8DFE817
:1009600001F00309060909000BB90F2A05D9022075
:100970005DF804FB01205DF804FB019900EB8202A5
:100980000968516018465DF804FB00BF10B584B0DB
:1009900004AC002344F8042D0A4600941946FFF7DE
:1009A000DBFF04B010BD00BFF0B5D36B1364151DA1
:1009B00007460E460FCDADF50F7D17AC0FC40FCD1A
:1009C0000FC40FCD0FC495E80F004FF0FF3584E83A
:1009D0000F00169510E016A8FFF7D8FF314616A8AD
:1009E000B84716AA694678B9049B08209847052895
:1009F00004460AD0092807D026996846FFF706FE64
:100A00006A460C210028E6D0092416A8FFF74EFEFE
:100A100020460DF50F7DF0BD2DE9F04F0D46C96C58
:100A20008BB00C1D096807919146089400F0030BE8
:100A30001E46002B60D10902032307918DF8256023
:100A40008DF824302B6DBBF1020F08BFAC6B13F097
:100A5000010340D1019300F008030393D4F8008010
:100A6000B8F1000F39D0022E43D0B4F80080678867
:100A70000434AB6C27F0010A0F2148469A44FFF773
:100A80005FFF824533D828F001039A4450452CBFBC
:100A9000002001207F0007F0020708F0010847EA64
:100AA0000807012F3ED035D3022F1CD1236823F035
:100AB00000420292BBF1000F76D128B103990029C0
:100AC0007ED0002A00F0A680002B77DB029B01334A
:100AD00004EB8304C2E700230193022E3EDDFFF7FF
:100AE00017FE002840D009200BB0BDE8F08F002091
:100AF000D0E767680834BCE7022BA3DC0B0CDAB242
:100B000009048DF82530022304EB820407918DF847
:100B1000243097E7BBF1000F02D0002840F0BD80E1
:100B200004349BE7BBF1000F25D1A8B194E80C0079
:100B3000991C4FEAD272D6D005F1580101330691C3
:100B400000F0A380201DFFF7DDFD06AB014628461F
:100B500006F024FE002877D108347FE707A948462D
:100B600000F0EEFA0028BED1019B002B5CD10820DA
:100B70000BB0BDE8F08F0D2148462F6AFFF7E0FE6D
:100B80008742E9D1AB6A9C42E6D12046FFF7F0FCF0
:100B90000F2102464846FFF7F9FE48462A46002143
:100BA000FFF7F4FE07209FE70D2148462F6AFFF765
:100BB000C7FE874258D02368002B87DA043485E7C4
:100BC000029B3BB305F15803271DCDF810B0DDF8AB
:100BD0000C80DDF808A00596A3461C4602E0B2454D
:100BE000B04616D038460694FFF78CFD06AB01469A
:100BF0000022284606F0D2FD08F10106043700283D
:100C0000EDD0029B059E43455C46DDF810B0D2D185
:100C100000E05C4648460D21FFF792FE069B2862E5
:100C2000AC626B6206205FE70F214846FFF788FE43
:100C30000E2102464846FFF7A9FE4846294A0F21E1
:100C4000FFF7A4FE07204FE707460D214846FFF7B0
:100C500077FE022F28621DD12B46069A43F82C2FCF
:100C60006B62AC6206203FE7AB6A9C42A3D10422D0
:100C70000027A3180299A962EF622A636B632368B5
:100C8000BB421DDB0123019320E748460D21FFF7FE
:100C900057FE2862069B6B62E3E72046FFF768FC7D
:100CA00004340646AC63284606F0D6FD00283FF41F
:100CB0001AAF484632460F21FFF768FE072013E7B8
:100CC0000846013004EB8000FFF752FC0F2102467A
:100CD0004846FFF75BFE48462A463946FFF756FE70
:100CE000072001E7FF7E0008002395E6012393E635
:100CF000022391E6F0B50446C5B004290DD8DFE81B
:100D000001F053030C310F00012B4FEA124695B24C
:100D100062D17219102A40F29B80022045B0F0BDCA
:100D2000002BFAD1102AF8D82368D80600F1C68023
:100D300022AE3046019200F073F9A06B019A0023B5
:100D4000012505FA03F1114203D0016846F823108A
:100D500004300133042BF4D1A063304600F056F97F
:100D60000020DBE7032BD8D1150C97B2EB19102B21
:100D7000D3D823681E0700F1B58022AE304600F0BC
:100D800023F9ED00A36B4FB1043D711903EBC700CC
:100D900053F8042B41F8042F8342F9D13046A36362
:100DA00000F0F0F80020B9E7002BB6D1A56B97B2A0
:100DB000201D012606FA03F1394203F1010302D096
:100DC000296801600435102B00F10400F2D112F4FF
:100DD00000503BD1A563A1E7052B9ED17719202FA9
:100DE0009BD80F2E66D92F46002D3AD12A460027D0
:100DF000002AA06B72DD00EBC202014644A800EBA2
:100E0000C6008C3851F8045B40F8045F9142F9D178
:100E1000084697B1102E324644A938BF102201EB84
:100E2000C202A2F5C4727900043A00EB810150F8C5
:100E3000045B42F8045F8842F9D1012B48D00F2EA1
:100E4000A16333D917B102A800F094F8002065E738
:100E50000F2E3FF662AF00272268D10717D4002F6C
:100E600060D02268510745D4012B4DD00F2E06D8F3
:100E700022A8019300F07AF8019B002FB6D002A8B7
:100E8000019300F07BF8019BC6F11002B0E722F05D
:100E90000101052B2160019320463BD022F0030283
:100EA00040F8482B00F05AF8019BD8E722A800F040
:100EB00059F8C7E7102FCED9103FCDE723F0100324
:100EC000236004F5E870019200F0AAF8019A2FE778
:100ED0000431A16322A800F03DF8B7E7002F99D1B3
:100EE0000146AAE723F00803236004F5A87000F088
:100EF0006BF842E7204622F0040240F8D02B019321
:100F000000F03CF8019BAFE722A8019300F026F81F
:100F1000019BB9E741F0020140F8481B00F026F8B8
:100F2000019B9CE7012B03D00F2E3FF65FAF9FE79D
:100F300022A8019300F012F8019B57E700F1340159
:100F400091E838009C46A6464CF8045D90E8FF0FF7
:100F5000E54600BD90EC210B704700BF80EC210BF3
:100F6000704700BF90EC200B704700BF80EC200B57
:100F7000704700BFD0EC200B704700BFC0EC200BC7
:100F8000704700BFF0EC0201F0EC0211F0EC02211E
:100F9000F0EC0231F0EC0241F0EC0251F0EC0261B5
:100FA000F0EC0271F0EC0281F0EC0291F0EC02A1A5
:100FB000F0EC02B1F0EC02C1F0EC02D1F0EC02E195
:100FC000F0EC02F1704700BFE0EC0201E0EC02112E
:100FD000E0EC0221E0EC0231E0EC0241E0EC0251F5
:100FE000E0EC0261E0EC0271E0EC0281E0EC0291E5
:100FF000E0EC02A1E0EC02B1E0EC02C1E0EC02D1D5
:10100000E0EC02E1E0EC02F1704700BFB0FC0181CE
:10101000B0FC0191B0FC01A1B0FC01B1704700BF70
:10102000A0FC0181A0FC0191A0FC01A1A0FC01B1E8
:10103000704700BFEC4600B52DE900502DE9FF1FB9
:101040004FF000032DE90C0001A9FFF7F3FBDDF8D9
:1010500040E012B0704700BFEC4600B52DE90050EB
:101060002DE9FF1F4FF000032DE90C0001A9FFF748
:101070001BFCDDF840E012B0704700BFEC4600B545
:101080002DE900502DE9FF1F4FF000032DE90C0062
:1010900001A9FFF72BFCDDF840E012B0704700BF5C
:1010A000EC4600B52DE900502DE9FF1F4FF000037D
:1010B0002DE90C0001ABFFF7EDFBDDF840E012B0CD
:1010C000704700BFEC4600B52DE900502DE9FF1F29
:1010D0004FF000032DE90C0001AAFFF765FCDDF8D5
:1010E00040E012B0704700BF027A1AB9437A43B9A0
:1010F000B02070470368013A02721A020260180EAB
:1011000070474268013B10B4437213680321141DF9
:1011100001721A024460026010BC180E704700BFD2
:1011200000B585B003AA0023009219460C22FFF7F0
:10113000EDFB039805B05DF804FB00BFF0E700BFCE
:101140002DE9F043064685B00F464FF000083846BB
:10115000FFF7CAFFB028044623D0050627D4002392
:101160000DF10C09194685000D22CDF8009030468E
:10117000FFF7CCFBEDB2039BCDF80090600605F1C4
:1011800004054CBF5D1BED18002319460D223046A7
:101190000395FFF7E1FB3846FFF7A6FFB0280446AA
:1011A000DBD1B8F1000F00F0958000201CE000F0CA
:1011B000F003802B5DD0902B19D0A02B2CD0B02B1E
:1011C0003FD0C02B6CD000F0F803D02B0BD100F037
:1011D0000702013242F40022052301213046FFF7C5
:1011E00089FD0028B3D0092005B0BDE8F08300F0E8
:1011F0000D030D2BF7D003AD002300F00F021946AD
:1012000000953046FFF782FB0023009519460D221A
:101210003046FFF7A1FB9AE7C24302F007034FF401
:101220007F621A41010702F47F624FF0000348BF5A
:1012300042F4804219463046FFF75CFD0028D2D1C7
:1012400085E7B12857D0B22868D0B32800F0958040
:1012500000F0FC03B42BC6D000F0070201320123DA
:1012600042F4002219463046FFF744FD0028BAD167
:101270006DE73846FFF738FF24020443B4F5004F0A
:10128000B1D024010023A2B219463046FFF732FD47
:101290000028A8D114F4004F18BF4FF0010856E7FA
:1012A000C6287DD0C72800F0868000F0F803C02B48
:1012B00000F09480C82800F09F80C92893D1384658
:1012C000FFF712FF020300F00F0002F4702201305A
:1012D000024381E703AC43460E2241460094304668
:1012E000FFF714FB0094304643460F224146FFF7B8
:1012F00033FB404678E73846FFF7F6FE00283FF418
:1013000072AF10F0F0037FF46EAF0246194630461C
:10131000FFF7F0FC00287FF466AF18E700230DF11B
:101320000C090D221946CDF800903046FFF7EEFA71
:101330003846FFF7D9FE02064FF002040CD5039B96
:1013400000F07F00A040034438460393FFF7CCFE33
:10135000030604F10704F2D4039BCDF8009000F0DB
:101360007F02A24003F501740023144419460D22A4
:1013700030460394FFF7F0FAE9E63846FFF7B4FE8B
:10138000010300F00F0001F47021421C01230A4305
:1013900030461946FFF7AEFC00287FF424AFD6E6AE
:1013A0003846FFF7A1FE010300F00F0001F47021A1
:1013B000421C0323EBE73846FFF796FE00283FF474
:1013C00012AF10F0F0037FF40EAF02460421304656
:1013D000FFF790FC00287FF406AFB8E600F00F029C
:1013E0000132032342F4202219463046FFF782FCE3
:1013F00000287FF4F8AEAAE63846FFF775FE00F045
:10140000F00200F00F031032013343EA0232E3E648
:1014100010B5C36C84B05A6803208DF80C00DC79D9
:101420008DF80D4012020833084601A9019202937B
:10143000FFF786FE04B010BD08B5FFF77FFE806C95
:1014400008BD00BF08B5FFF779FEC06CC37900EB9B
:101450008300083008BD00BF08B500F007F800BFE2
:1014600008B5FFF7F9FF00BF704700BF08B50620B9
:1014700000F052FE012005F07AFF00BF00B50A4CD3
:101480002668054685B01C46F06852B1074B0292AB
:101490008DE80A0022462B46054900F027F8FFF7A1
:1014A000E5FF044B1A46F2E700000020F08900082F
:1014B000008A0008FC89000808B513460022FFF7DF
:1014C000DDFF00BF014B1868704700BF000000201F
:1014D0000CB400B583B004AB53F8042B019300F0B7
:1014E0004BFA03B05DF804EB02B070470EB410B5D0
:1014F00083B005AB064C53F8042B019301462068DA
:1015000000F03AFA03B0BDE8104003B0704700BFE6
:101510000000002070B50F4E0F4D761BB61018BF9F
:10152000002405D0013455F8043B9847A642F9D170
:101530000A4E0B4D761B06F03DFDB61018BF002479
:1015400006D0013455F8043B9847A642F9D170BD46
:1015500070BD00BFC0910008C0910008C491000890
:10156000C0910008024B0146186800F06BB900BF3B
:1015700000000020024B0146186800F01BB900BFB4
:1015800000000020032A70B422D940EA01039B071F
:1015900011D003780C78A3421DD10A44013105E033
:1015A00010F8013F11F8014BA34214D19142F7D139
:1015B000002070BC70470D680668AE420C460346BA
:1015C00001F1040100F1040008D1043A032AF2D821
:1015D000002ADED1ECE7181B70BC70472146184684
:1015E000D7E700BF844641EA000313F003036DD13F
:1015F000403A41D351F8043B40F8043B51F8043BD6
:1016000040F8043B51F8043B40F8043B51F8043BDC
:1016100040F8043B51F8043B40F8043B51F8043BCC
:1016200040F8043B51F8043B40F8043B51F8043BBC
:1016300040F8043B51F8043B40F8043B51F8043BAC
:1016400040F8043B51F8043B40F8043B51F8043B9C
:1016500040F8043B51F8043B40F8043B51F8043B8C
:1016600040F8043B51F8043B40F8043B51F8043B7C
:1016700040F8043B403ABDD2303211D351F8043B1C
:1016800040F8043B51F8043B40F8043B51F8043B5C
:1016900040F8043B51F8043B40F8043B103AEDD2CB
:1016A0000C3205D351F8043B40F8043B043AF9D21C
:1016B000043208D0D2071CBF11F8013B00F8013BEF
:1016C00001D30B8803806046704700BF082A13D3FC
:1016D0008B078DD010F003038AD0C3F10403D21A14
:1016E000DB071CBF11F8013B00F8013B80D331F848
:1016F000023B20F8023B7BE7043AD9D3013A11F8C8
:10170000013B00F8013BF9D20B7803704B78437032
:101710008B7883706046704770B4860746D0541E3D
:10172000002A41D0CAB2034602E014F1FF343BD391
:1017300003F8012B9D07F8D1032C2ED9CDB245EA31
:1017400005250F2C45EA054519D903F11002264657
:10175000103E0F2E42F8105C42F80C5C42F8085C18
:1017600042F8045C02F11002F2D8A4F1100222F057
:101770000F0204F00F041032032C13440DD91E463F
:101780002246043A032A46F8045BFAD8221F22F0C4
:1017900003020432134404F003042CB1C9B21C4404
:1017A00003F8011B9C42FBD170BC704714460346F2
:1017B000C2E700BF91B151F8043C0439002BB8BF17
:1017C000C9181F4B1A68FAB18A4230B40AD908689E
:1017D0000C18A24226D04A60196030BC70478B4278
:1017E00003D81A465368002BF9D1146815198D4295
:1017F0000DD006D808680C189C4219D04B60516077
:10180000EBE70C230360E8E74A601960704709685A
:101810000C44111999421460DFD10ACB0C44536077
:101820001460DAE7146852684A6020440860D3E71D
:101830001C685B684B60204408605160CDE700BFC6
:101840009400002070B5CC1C24F0030408340C2C48
:1018500038BF0C24002C06463BDBA14239D8274D6B
:10186000296851B10A68121B04D436E01A68121BA9
:101870001AD519464B68002BF8D16968002937D072
:101880002146304600F0A0FB431C22D0C31C23F0AD
:101890000305A84205D0291A304600F095FB013017
:1018A00017D02C602B4604E00B2A0DD91A60134484
:1018B0001C6003F10B0020F007001A1D821A02D0F1
:1018C0005142995070BD70BD8B420ED05A684A602B
:1018D000EFE70C233360002070BD0B2A03D84A6861
:1018E0000B462A60E5E70B46E0E70A460B46F8E7B9
:1018F000304600F069FB6860C2E700BF940000203A
:101900009368013B002B10B4936007DBCCB21368E3
:10191000581C10601970204610BC70479469A3428F
:1019200002DBCCB20A2CF2D110BC00F017BE00BF13
:1019300093B1F8B514460F460646D51801E0AC42FF
:1019400008D03A4614F8011B3046FFF7D9FF431C74
:10195000F5D1F8BD0020F8BD00207047936810B5A0
:10196000144613B95360184610BD01F0C3F80023A4
:10197000A360636010BD00BF2DE9F04F9DB08946A4
:1019800014460393824618B18369002B00F00A8144
:101990008A4B994500F00C81894B994500F00B81E9
:1019A000884B994508BFDAF80C90B9F80C30180745
:1019B00040F1EE80D9F81030002B00F0E9803023A0
:1019C0008DF82A302378804E0021202209918DF84D
:1019D00029200127002B00F08480252B254603D1E8
:1019E00017E0252B00F0858015F8013F002BF8D17A
:1019F000B5EB040B75D022465B4649465046FFF7CF
:101A000097FF01306DD0099B2A785B440993002A27
:101A100067D000234FF0FF320135049307930693FC
:101A20008DF853301A93059204E0049A07FA03F3F1
:101A30001343049329780522304601F099FA2C4685
:101A4000831B01350028F0D1049BD90644BF202216
:101A50008DF8532021781A0744BF2B228DF853208C
:101A60002A2969D0A1F13002092A0BD8079B14F862
:101A7000011F03EB830302EB4303A1F13002092AA8
:101A8000F5D907932E293FD0504D0322284601F067
:101A90006FFA38B1049B401B402202FA00F0034366
:101AA0000134049321784A488DF828100622013425
:101AB00001F05EFA002849D0464BF3B103AB009326
:101AC0004A46454B04A95046AFF300808046B8F122
:101AD000FF3F06D0099B434409932378002B7FF4F2
:101AE0007CAFB9F80C305B0659D409981DB0BDE83D
:101AF000F08FB5EB040B8CD07DE7039B073323F00D
:101B0000070308330393E5E761782A2904F101000C
:101B100026D0A1F130020023092A05930446B3D848
:101B200014F8011F03EB830302EB4303A1F130021E
:101B3000092AF5D90593A7E7039A11680432002909
:101B400003921FDB0791617801349BE703AB00939D
:101B50004A46214B04A9504600F0E6F88046B6E715
:101B6000039B1A680592002A03F104030393B8BF8C
:101B70004FF0FF3204F10203AEBFA178A1780592C5
:101B80001C4681E7494243F0020307910493DAE7D8
:101B90004946504600F044FD00283FF410AF4FF096
:101BA000FF30A3E700F086FF044B99457FF4F4AEC5
:101BB000DAF80490F9E6DAF80890F6E6F08400081E
:101BC000D0840008B0840008348A00083C8A0008E9
:101BD000408A0008000000003119000810B4044CCD
:101BE00013460A460146206810BCFFF7C5BE00BF79
:101BF000000000202DE9F0470C4691460A698968EB
:101C0000DDF820808A42B8BF0A46C9F8002094F85F
:101C1000431006461F4611B10132C9F8002023685F
:101C200099065DD5D9F800200232C9F80020236852
:101C300013F0060F19461DD1E1688A1A002AD8BF91
:101C4000194617DD04F1190A002505E0E368D9F803
:101C500000209B1AAB420CDD012352463946304628
:101C6000C047013005F10105F0D14FF0FF30BDE86C
:101C7000F087216894F84330003318BF01238A06A7
:101C80000AD5E1185A1C302081F84300224494F808
:101C9000451082F84310023304F1430239463046BE
:101CA000C0470130E1D0236803F00603042B29D09C
:101CB000A36822699342C8BF4FF0000930DD9B1A28
:101CC00099441A34002501E04D4529D001232246CC
:101CD00039463046C047013005F10105F4D1C4E76B
:101CE00013F0060F08D1E168D9F800208A1A002AFB
:101CF000D8BF1946A6DCBDE794F84330003318BFBF
:101D00000123C9E7D9F80010E068A3682269A0EBB5
:101D10000109934229EAE979D1DCB9F1000FD0D168
:101D20000020BDE8F08700BF2DE9F0430C46097E96
:101D300085B06E29064617460C98984604F1430C68
:101D400055D00FD8632900F01B8100F2D6800029FE
:101D50005CD0582940F0E88084F845102268DFF80C
:101D600060E213E0732900F0FD8000F289806F29A2
:101D700000F0E480702940F0D780226842F0200211
:101D800022607823DFF83CE284F8453003681506CA
:101D900003F1040100F1FF8055064BBF1B881B684F
:101DA00001600160D00744BF42F020022260002B96
:101DB00040F09580226822F020022260102100224B
:101DC00084F843206068A0600028C0F28D802268FB
:101DD00022F004022260002B67D1002840F08680A8
:101DE000654608296FD0ACEB0503236111E0236839
:101DF0001A0600F1D38013F0400F0368626903F103
:101E0000040101601B6814BF1A801A600023654634
:101E10002361CDF800803B4603AA21463046FFF7F8
:101E2000E9FE013021D02A46236939463046C047B1
:101E300001301AD02368E06813F0020F039B19D019
:101E4000C21A002A16DD04F11909002504E0E06831
:101E5000039BC21AAA420DDD01234A463946304689
:101E6000C047013005F10105F1D14FF0FF3005B059
:101E7000BDE8F0839842B8BF184605B0BDE8F083CE
:101E800075295BD078294FD122687AE76168A16013
:101E90002D200029C3F1000384F8430021DB22F048
:101EA0000402DFF81CE122600A216546B3FBF1F26F
:101EB00001FB123013461EF8002005F8012D002BFF
:101EC000F4D108298FD12368D9078CD5626823699A
:101ED0009A4288DC302305F8013C013D83E710215C
:101EE0006DE7DFF8DCE00A21002BDED19EF8003040
:101EF00084F8423004F1420573E7642901D069296E
:101F000012D122680368150603F1040152D4550664
:101F10004BBFB3F900301B6801600160002BB5DBDB
:101F2000DFF89CE00A214DE7012384F84210236189
:101F300004F14205002384F843306AE723681A0657
:101F400033D413F0400F036803F1040215BF1B885C
:101F50001B68026002606F2914BF0A210821DFF8A4
:101F600060E02CE703686268191D01601D680021AC
:101F7000284600F0FDFF00B3401B60602061D9E7F8
:101F800003681A68191D0123016004F1420584F8F1
:101F900042202361CEE701601B6803E703686269A2
:101FA000191D01601B681A6030E703681A1D026082
:101FB0001B68D0E701601B68B0E76068DEE700BF20
:101FC000488A00085C8A000838B5074C002305469B
:101FD0000846236005F00EFA431C00D038BD236884
:101FE000002BFBD02B6038BDB401002010B5802140
:101FF0000446FFF727FC606440B1031F00227C30D9
:1020000043F8042F8342FBD1002010BD4FF0FF3076
:1020100010BD00BF436C0BB100207047E6E700BF66
:102020001F2909D810B5446C84B054B154F821006C
:1020300044F8212004B010BD162202604FF0FF309A
:102040007047039002920191FFF7D0FF20B9039BE4
:10205000029A5C6C0199E9E74FF0FF30EAE700BFB4
:102060001F2927D820B5426C82B00546AAB152F884
:10207000213093B1012B0ED0581C07D00025084603
:1020800042F821509847284602B020BD162301206F
:102090002B6002B020BD0020F6E72846019100F039
:1020A00071F801990A460146284602B0BDE8204071
:1020B00000F054B8162303604FF0FF30704700BFA4
:1020C0001F2926D820B5436C82B00546BBB153F812
:1020D000212003EB810382B1501C0BD0012A06D0D2
:1020E000002508461D609047284602B020BD032009
:1020F00002B020BD022002B020BD0120F5E7019111
:10210000FFF774FF10B96B6C0199E0E74FF0FF30F7
:10211000EBE74FF0FF307047024B01461868FFF7BE
:102120009FBF00BF00000020024B0A46014618680E
:10213000FFF776BF00000020034B1868436C0BB11B
:102140000020704752E700BF00000020024B01460C
:102150001868FFF7B5BF00BF0000002038B50B4678
:10216000074C0546114618460023236005F0EFF89A
:10217000431C00D038BD2368002BFBD02B6038BD3A
:10218000B401002005F0DCB80000000000000000F1
:10219000000000000000000000000000000000003F
:1021A000A2EB0300704700BF02780B78012A28BF1A
:1021B0009A42F5D16DE9044540EA0104CDE9026790
:1021C0006FF0000C4FEA447212B380EA010414F07D
:1021D000070F6AD100F0070420F0070004F00305A0
:1021E00021F007014FEAC505F0E8042314F0040FBD
:1021F000F1E804670CFA05F462EA040266EA0406F0
:102200000AD063EA0403624667EA0407664603E00D
:10221000F0E80423F1E8046782FA4CF582EA060448
:10222000A4FA8CF46CBB83FA4CF583EA0705A5FA93
:102230008CF595B950E9022351E9026782FA4CF511
:1022400082EA0604A4FA8CF483FA4CF583EA0705C3
:10225000A5FA8CF52543DBD09CB92DBAB5FA85F4E7
:1022600024F0070427FA04F1DDE9026723FA04F3F6
:1022700003F0FF0001F0FF01FDE80445A0EB0100C1
:10228000704724BAB4FA84F424F0070426FA04F15F
:10229000DDE9026722FA04F202F0FF0001F0FF011B
:1022A000FDE80445A0EB0100704714F0030F3CD19A
:1022B00010F0030428D150F8082B51F8083B82FA9B
:1022C0004CF582EA0305A5FA8CF55DB950F8042CAB
:1022D00051F8043C82FA4CF582EA0305A5FA8CF524
:1022E000002DE8D02DBAB5FA85F424F0070423FABE
:1022F00004F122FA04F202F0FF0001F0FF01FDE810
:102300000445A0EB010070474FEAC40420F003002D
:1023100050F8082B21F0030151F8083B0CFA04F4A3
:1023200062EA040263EA0403C9E710F003041AD066
:10233000A1EB040120F00300E40750F8042B06D0C1
:102340000FD28B785FFAA2F4E41A06D12BB1CB78C6
:102350005FFAB2F4E41A00D11BB920465DF8104BC5
:10236000704701F1040150F8042BCC0721F0030160
:1023700051F8043B48D824D222F07F4482FA4CF52D
:1023800094EA1325A5FA8CF50AD165B951F8043BF6
:1023900084EA0204B4EB036F0ED150F8042BEBE790
:1023A0004FEA132355E035F07F454DD10878FDE81D
:1023B0000445C0F1000070474FEA126203F0FF03CA
:1023C00047E002EA1C4482FA4CF594EA1345A5FA68
:1023D0008CF50AD165B951F8043B84EA0204B4EBE8
:1023E000034F0CD150F8042BEBE74FEA134330E0D6
:1023F00015EA1C4528D10B884FEA124229E04FEA22
:10240000124203EA1C4324E002F0FF0482FA4CF576
:1024100094EA1365A5FA8CF50AD165B951F8043B25
:1024200084EA0204B4EB032F09D150F8042BEBE744
:102430004FEA13630DE015F0FF0F05D10B684FEA6B
:10244000122223F07F4304E04FF00000FDE8044532
:10245000704712BA1BBA82FA4CF482EA0304A4FA57
:102460008CF5B5FA85F402FA04F203FA04F34FEAA4
:102470001260FDE80445A0EB136070470000000007
:1024800090F800F06DE9024520F007016FF0000CB4
:1024900010F0070491F820F040F049804FF000045C
:1024A0006FF00700D1E9002391F840F000F1080037
:1024B00082FA4CF2A4FA8CF283FA4CF3A2FA8CF36F
:1024C0004BBBD1E9022382FA4CF200F10800A4FAD6
:1024D0008CF283FA4CF3A2FA8CF3E3B9D1E904232A
:1024E00082FA4CF200F10800A4FA8CF283FA4CF361
:1024F000A2FA8CF37BB9D1E9062301F1200182FA1B
:102500004CF200F10800A4FA8CF283FA4CF3A2FA20
:102510008CF3002BC6D0002A04BF04301A4612BA2E
:10252000B2FA82F2FDE8024500EBD2007047D1E931
:10253000002304F00305C4F100004FEAC50514F0C0
:10254000040F91F840F00CFA05F562EA05021CBF91
:1025500063EA050362464FF00004A9E7F8B50D46AB
:102560001446064610B18369002B42D0254B9C428D
:1025700044D0254B9C4243D0244B9C4208BFF46876
:10258000A389A269A2601A0722D5236903B322682E
:102590006169D31AEDB28B422F4621DA0133A1686B
:1025A000501C0139A1602060157062699A4206D002
:1025B000A389DB0701D50A2D01D03846F8BD214695
:1025C000304600F03BF90028F7D04FF0FF37F4E732
:1025D0002146304600F024F80028F6D12369D6E7DA
:1025E0002146304600F02AF90028EED12268012366
:1025F000D5E700F05FFA034B9C42BAD17468BFE79D
:10260000B468BDE7F0840008D0840008B0840008F6
:10261000024B0A4601461868FFF7A0BF00000020E1
:10262000384B70B51D6806460C4615B1AB69002BDA
:1026300042D0354B9C4245D0344B9C4258D0344B11
:102640009C4208BFEC68B4F90C2093B219070CD572
:102650002069A8B113F001021ED0636900225B4219
:10266000A361A260F0B1002070BDDD0642D558071D
:102670002AD4206942F00803A3819BB20028E9D143
:1026800003F42072B2F5007FE4D03046214600F01A
:1026900027FCA3892069DDE7990758BF6269A2601A
:1026A0000028E0D1B4F90C301A06DDD543F0400320
:1026B000A3814FF0FF3070BD284600F0FBF9124BAC
:1026C0009C42B9D16C68BEE7616B51B104F144031F
:1026D000994204D03046FFF76DF8B4F90C2000237E
:1026E000636300232069636022F024022060C1E755
:1026F000AC68A8E742F04002092333604FF0FF3096
:10270000A28170BD00000020F0840008D084000881
:10271000B08400088B891A072DE9F0410D468046E8
:1027200033D44A68002A67DDEC6A002C45D00022C9
:10273000D8F80060C8F8002013F4805260D06A6DA9
:102740005F0705D569686B6B521A0BB12B6CD21AF7
:102750000023296A4046A047441C39D0AB892A6926
:102760002A60DB044FF000026A6043D4696BC8F84A
:10277000006011B305F14403994202D04046FFF7CF
:1027800019F800206863BDE8F0810E69AEB10C68ED
:102790000E6098070CBF4B690023A41B8B600AE0F6
:1027A00023463246AF6A296A4046B8470028A4EB60
:1027B0000004064404DD002CF2DC0020BDE8F081BA
:1027C000AB8943F04003AB814FF0FF30BDE8F081AF
:1027D000D8F800201D2AF3D8174BD340DB4313F061
:1027E0000103EDD1A9892C696B60C9042C60BDD5AA
:1027F000002ABBD16865B9E70A6C002A94DCDCE7E3
:102800000123296A4046A047431C024602D0AB89F7
:10281000EC6A95E7D8F80030002BF8D01D2B01D0DA
:10282000162B02D1C8F80060C7E7AB8943F040031C
:10283000AB81BDE8F08100BF010040200B6933B3DC
:1028400010B5044682B008B18369ABB1114B99420F
:1028500019D0114B994218D0104B994208BFE1682A
:10286000B1F90C3013B9002002B010BD204602B0FF
:10287000BDE81040FFF74EBF019100F01BF9019930
:10288000044B9942E5D16168EAE7A168E8E70020D6
:10289000704700BFF0840008D0840008B0840008AE
:1028A00020B1054B01461868FFF7C8BF034B044928
:1028B000186800F0BDBA00BF00000020AC8400081A
:1028C0003D28000800207047014900F0B1BA00BF60
:1028D0003D2800080020704770B54A1E682505FB9A
:1028E00002F50E4605F17401FEF7ACFF044640B157
:1028F00000210C30666005F168022160A060FEF7DF
:102900000BFF204670BD00BF204B70B51D68AB6942
:1029100006465BB348356B68AC68013B05D521E0E2
:10292000013B5A1C04F168041CD0B4F90C20002AA5
:10293000F6D100254FF6FF720123E281A38165667F
:102940002560A560656025616561A561294608224D
:1029500004F15C00FEF7E0FE6563A563A564E56431
:10296000204670BD286828B10546D4E7284600F007
:102970000FF8CFE704213046FFF7AEFF28600028AC
:10298000F2D10C2304463360EAE700BFAC840008B0
:102990003D4B3E491A682DE9F04F90424FF000033D
:1029A0008364C364036508BF012383B008BF8361E8
:1029B00081620746FFF7A8FF78603846FFF7A4FF5B
:1029C000B8603846FFF7A0FF7D68F8600024042354
:1029D000AB812C606C60AC606C66EC812C616C61CE
:1029E000AC61214605F15C000822FEF795FEBE6849
:1029F000DFF89CB0DFF89CA0DFF89C90DFF89C80AB
:102A0000C5F824B001230922C5F828A0C5F82C90E8
:102A1000C5F830802D622146F381B2813460746044
:102A2000B460746634617461B46106F15C000822BC
:102A30000193FEF771FEFD68366212200222C6F88D
:102A400024B0C6F828A0C6F82C90C6F830802146DD
:102A5000A881EA812C606C60AC606C662C616C6152
:102A6000AC6105F15C000822FEF756FE019B2D6269
:102A7000C5F824B0C5F828A0C5F82C90C5F830805A
:102A8000BB6103B0BDE8F08FAC840008C928000822
:102A900029310008513100088D310008AD3100089E
:102AA000024B0349186800F0C3B900BFAC840008AA
:102AB0003D280008836903B96AE77047704700BF83
:102AC000704700BF704700BF704700BF024B03490B
:102AD000186800F087B900BF00000020D528000862
:102AE000024B0349186800F07DB900BF00000020C8
:102AF000C52800089368002B73D02DE9F04F8B890F
:102B000083B00C4619070090164626D5226922B3D9
:102B100013F0020035682CD04FF00009B04FC846C2
:102B2000B246B84543464A4628BF3B460098B8F1EE
:102B3000000F50D0216AA66AB047002858DDDAF8A5
:102B400008301B1A8144A8EB0008CAF80830002B93
:102B5000E7D1002003B0BDE8F08F21460098FFF7D1
:102B60005FFD002840F03381A389356813F002002F
:102B7000D2D113F0010945D14F46019637B39A05DA
:102B8000D4F8088040F183804745C346C0F0AB804D
:102B900013F4906F40F0AC802068BA465A4649461C
:102BA00000F036FAA2682368A2EB08025B44A26038
:102BB0002360019A9368A3EB0A03D144A7EB0A07A9
:102BC0009360002BC5D0A389002FD8D1D5F80090F1
:102BD0006F680835D2E7D5F80090D5F8048008353D
:102BE0009FE70020704721460098FFF727FE70B34B
:102BF000B4F90C3043F040034FF0FF30A38103B031
:102C0000BDE8F08F814633464E46A8469A464D466B
:102C10004EB380B3206823696269B145CB4628BFB3
:102C2000B34698425F4604D9A36813449B4500F31A
:102C3000A68093454BDB1346A76A216A00982A4673
:102C4000B847071ED4DDB9EB0709CCD00120DAF86C
:102C50000830DB1B3D44F61BCAF80830002B3FF45C
:102C600078AF002ED5D108F1080313E9600098462B
:102C70000833002EF9D032460A21284600F078F9B0
:102C8000002800F0A1800130A0EB0509C2E7206810
:102C90002369984202D863699F425DD2B84528BF34
:102CA000B8464246494600F0B3F9A3682268A3EB50
:102CB00008034244A36022600BB1C24679E7214673
:102CC0000098FFF7BBFD002892D1C24671E75A4633
:102CD000294600F09DF9A2682368A2EB0B025B4431
:102CE000A2602360AFE72068B846BA46BB4655E706
:102CF00062692068216902EB4208A0EB010A08EB37
:102D0000D8780AF101004FEA680838444045424645
:102D100084BF804642465B0544D511460098FEF7C5
:102D200091FD8346002855D052462169FEF75AFC92
:102D3000A38923F4906343F08003A3810BEB0A0083
:102D4000A8EB0A03C4F810B0C4F814802060A36094
:102D5000B846BA46BB4621E76FF00041B94228BFEA
:102D600039464A4691FBF3F10098A66A03FB01F34A
:102D7000216AB047B0F1000A3FF71BAF38E71A46A7
:102D80002946019300F044F92268019B00981A44F7
:102D900022602146FFF752FD019B00287FF428AFF7
:102DA0001F4650E7009800F097F983460028C5D1E8
:102DB000009D21692846FEF7FDFCB4F90C300C2279
:102DC00023F080032A6015E706F1010922E74FF09E
:102DD000FF30BFE6009A0C231360B4F90C3009E70A
:102DE00000FCFF7F2DE9F04110F148071BD0884619
:102DF00000267D68BC68013D0FD4A389012B05F135
:102E0000FF3506D9B4F90E300133204601D0C04752
:102E100006436B1C04F16804EFD13F68002FE8D132
:102E20003046BDE8F0813E463046BDE8F08100BF47
:102E30002DE9F84310F148071FD0884606464FF0A9
:102E400000097D68BC68013D11D4A389012B05F1FF
:102E5000FF3508D9B4F90E3001332146304602D08F
:102E6000C04749EA00096B1C04F16804EDD13F68D2
:102E7000002FE6D14846BDE8F883B9464846BDE88C
:102E8000F88300BF70B50C46B1F90E10002990B060
:102E900015461E4613DB01AA00F0B4F900280EDB2C
:102EA000029A02F47042A2F50052B2FA82F252097A
:102EB0004FF48063002032602B6010B070BDA38996
:102EC00000221B06326004D5402300202B6010B086
:102ED00070BD4FF4806300202B6010B070BD00BF48
:102EE0008A8992070B4606D501F1470201211A6033
:102EF0001A6159617047F0B583B001AB6A460C4660
:102F00000546FFF7BFFF009906462846FEF79AFCE4
:102F1000B4F90C30D0B1019A124F0099AF6243F06E
:102F20008003A3812060206161611AB93343A381CA
:102F300003B0F0BD2846B4F90E1000F077F9B4F9EB
:102F40000C300028F2D043F00103EFE79A05EFD4EC
:102F500004F1470243F002030121A38122602261B0
:102F60006161E5E7C92800080000000000000000DA
:102F700001F0FF01102A2BDB10F0070F08D010F82A
:102F8000013B013A8B422DD010F0070F42B3F6D12E
:102F9000F0B441EA012141EA014122F007047FF047
:102FA00000070023F0E80256083C85EA010586EA9E
:102FB000010685FA47F5A3FA87F586FA47F6A5FADA
:102FC00087F68EB9EED1F0BC01F0FF0102F00702E6
:102FD00032B110F8013B013A83EA010313B1F8D191
:102FE0000020704701387047002D06BF3546033872
:102FF000073815F0010F07D1013015F4807F02BFAB
:10300000013015F4C03F0130F0BC0138704700BFFB
:103010008842F0B50DD98B1898420AD28418002A3C
:1030200051D0224613F8014D02F8014D9942F9D1D1
:10303000F0BD0F2A48D941EA00039B0746D100F1B1
:10304000100401F11003154653F8106C44F8106C8D
:1030500053F80C6C44F80C6C53F8086C44F8086C8A
:10306000103D53F8046C44F8046C0F2D03F1100369
:1030700004F11004E8D8A2F1100323F00F0302F0CA
:103080000F0E1033BEF1030F1944034421D91E1F44
:103090000D467446043C55F8047B46F8047F032C27
:1030A000F8D8AEF1040424F003040434214423448A
:1030B00002F0030262B1013B0A4411F8014B03F82C
:1030C000014F8A42F9D1F0BD0346F3E70346F2E728
:1030D000F0BD7246EEE700BFF8B51446F9B1C2B1D3
:1030E00006460D4600F0CAF8844201D82846F8BDCD
:1030F00021463046FEF7A6FB074670B12246294618
:10310000FEF770FA294630463D46FEF753FB284647
:10311000F8BDFEF74FFB2546E8E70546E6E7114612
:10312000BDE8F840FEF78EBB10B50C46B1F90E10A5
:1031300000F0AEF8002803DB636D0344636510BD47
:10314000A38923F48053A38110BD00BF00207047E2
:103150002DE9F0411646B1F90C201F46D3050C4667
:10316000054607D500220223B1F90E1000F070F8D1
:10317000B4F90C20B4F90E1022F48052A2813B461F
:1031800032462846BDE8F04100F014B810B50C46B0
:10319000B1F90E1000F05CF8A389421C0EBF23F4B5
:1031A000805343F480536065A38110BDB1F90E10C4
:1031B00000F016B870B50D46084C114606461A4682
:1031C00028460023236004F0F9F8431C00D070BDAA
:1031D0002368002BFBD0336070BD00BFB40100201A
:1031E00038B5074C002305460846236004F02EF945
:1031F000431C00D038BD2368002BFBD02B6038BDAA
:10320000B401002038B50B46074C05461146184658
:103210000023236004F025F9431C00D038BD236847
:10322000002BFBD02B6038BDB401002038B5074C13
:10323000002305460846236004F022F9431C00D011
:1032400038BD2368002BFBD02B6038BDB4010020B3
:1032500070B50D46084C114606461A46284600230E
:10326000236004F017F9431C00D070BD2368002BC5
:10327000FBD0336070BD00BFB401002051F8040CD6
:103280000028A0F10400BCBF0B58C018704700BF55
:1032900070B50D46084C114606461A4628460023CE
:1032A000236004F06EF8431C00D070BD2368002B2F
:1032B000FBD0336070BD00BFB401002080B582B088
:1032C00000AF0023FB71032000F014F9002000F090
:1032D0000DF80346002B02D00123FB7101E003F03F
:1032E0005DFFFB7918460837BD4680BD80B584B0C8
:1032F00000AF78600023FB73164B1B68002B22D0B5
:10330000154B1A68134B1B684FF47A71B1FBF3F33A
:10331000B2FBF3F3184600F014F90346002B0FD16B
:103320007B680F2B09D8002279684FF0FF3000F03E
:10333000ECF80A4A7B68136007E00123FB7304E0A2
:103340000123FB7301E00123FB73FB7B184610375D
:10335000BD4680BD680000206C0000206400002095
:1033600080B400AF054B1A68054B1B681344034A31
:10337000136000BFBD4680BC704700BF9C000020AA
:103380006800002080B400AF024B1B681846BD46A1
:1033900080BC70479C00002080B485B000AF78608E
:1033A0007B6803F00703FB600C4BDB68BB60BA680B
:1033B0004FF6FF031340BB60FB681A02BB68134360
:1033C00043F0BF6343F40033BB60044ABB68D3607F
:1033D00000BF1437BD4680BC704700BF00ED00E061
:1033E00080B400AF044BDB681B0A03F007031846E8
:1033F000BD4680BC704700BF00ED00E080B483B0E4
:1034000000AF03463960FB7197F90730002B0ADBE8
:103410000D4997F907303A68D2B21201D2B20B4483
:1034200083F800230AE00949FB7903F00F03043B0A
:103430003A68D2B21201D2B20B441A7600BF0C37EE
:10344000BD4680BC704700BF00E100E000ED00E039
:1034500080B489B000AFF860B9607A60FB6803F0AF
:103460000703FB61FB69C3F10703042B28BF042397
:10347000BB61FB690433062B02D9FB69033B00E007
:1034800000237B610122BB6902FA03F35A1EBB6869
:103490001A407B699A4001217B6901FA03F3591EA6
:1034A0007B680B40134318462437BD4680BC7047E9
:1034B00080B582B000AF78607B68013BB3F1807F5C
:1034C00001D301230FE00A4A7B68013B53600F21BF
:1034D0004FF0FF30FFF792FF054B00229A60044B3C
:1034E00007221A60002318460837BD4680BD00BF7A
:1034F00010E000E080B582B000AF78607868FFF738
:103500004BFF00BF0837BD4680BD80B586B000AF19
:103510000346B9607A60FB7300237B61FFF760FFAD
:1035200078617A68B9687869FFF792FF024697F97F
:103530000F3011461846FFF761FF00BF1837BD4630
:1035400080BD80B582B000AF78607868FFF7B0FFCB
:10355000034618460837BD4680BD000080B487B0DA
:1035600000AF7860396000237B6148E13B681A68EE
:1035700001217B6901FA03F31340FB60FB68002B18
:1035800000F03A813B685B68022B03D03B685B68C4
:10359000122B23D17B69DA087B68083253F822307A
:1035A0003B617B6903F007039B000F2202FA03F3E0
:1035B000DB433A6913403B613B681A697B6903F05E
:1035C00007039B0002FA03F33A6913433B617B69EB
:1035D000DA087B680832396943F822107B681B6877
:1035E0003B617B695B00032202FA03F3DB433A6928
:1035F00013403B613B685B6803F003027B695B003F
:1036000002FA03F33A6913433B617B683A691A6033
:103610003B685B68012B0BD03B685B68022B07D0D3
:103620003B685B68112B03D03B685B68122B30D181
:103630007B689B683B617B695B00032202FA03F3B2
:10364000DB433A6913403B613B68DA687B695B00A6
:1036500002FA03F33A6913433B617B683A699A6063
:103660007B685B683B6101227B6902FA03F3DB4301
:103670003A6913403B613B685B681B0903F0010238
:103680007B6902FA03F33A6913433B617B683A6949
:103690005A607B68DB683B617B695B00032202FA4E
:1036A00003F3DB433A6913403B613B689A687B69EB
:1036B0005B0002FA03F33A6913433B617B683A69A2
:1036C000DA603B685B6803F08053002B00F0948065
:1036D000514A514B1B6E43F0010313664E4B1B6E58
:1036E00003F00103BB60BB684C4A7B699B08023353
:1036F00052F823303B617B6903F003039B000F22E8
:1037000002FA03F3DB433A6913403B617B68B3F190
:10371000904F0DD07B68424A934207D07B68414A64
:10372000934201D1022304E0072302E0012300E0D9
:1037300000237A6902F00302920093403A6913432E
:103740003B6136497B699B0802333A6941F8232083
:10375000354B1B683B61FB68DB433A6913403B61B7
:103760003B685B6803F48033002B03D03A69FB6845
:1037700013433B612C4A3B6913602B4B5B683B61F5
:10378000FB68DB433A6913403B613B685B6803F4C9
:103790000033002B03D03A69FB6813433B61224A94
:1037A0003B695360204B9B683B61FB68DB433A6994
:1037B00013403B613B685B6803F48013002B03D02C
:1037C0003A69FB6813433B61174A3B699360164BA8
:1037D000DB683B61FB68DB433A6913403B613B6854
:1037E0005B6803F40013002B03D03A69FB681343B2
:1037F0003B610D4A3B69D3607B6901337B613B6868
:103800001A687B6922FA03F3002B7FF4AFAE00BF86
:103810001C37BD4680BC70470010024000000140CC
:1038200000040048000800480004014080B483B050
:1038300000AF78600B467B8013467B707B78002B53
:1038400003D07A887B689A6102E07A887B689A6202
:1038500000BF0C37BD4680BC7047000080B400AF8D
:10386000044A044B1B6843F48073136000BFBD46D9
:1038700080BC70470070004080B400AF034B1B68F1
:1038800003F4C0631846BD4680BC7047007000401A
:1038900080B485B000AF78607B68B3F5007F30D12D
:1038A000224B1B6803F4C063B3F5007F38D01F4A76
:1038B0001E4B1B6823F4C06343F4007313601C4B5E
:1038C0001B68322202FB03F31A4AA2FB03239B0C60
:1038D0000133FB6002E0FB68013BFB60134B5B695B
:1038E00003F48063B3F5806F02D1FB68002BF2D143
:1038F0000E4B5B6903F48063B3F5806F10D1032333
:103900000FE00A4B1B6803F4C063B3F5806F07D068
:10391000064A064B1B6823F4C06343F480631360BC
:10392000002318461437BD4680BC70470070004025
:103930006C00002083DE1B4380B588B000AF786048
:103940007B68002B01D10123DBE3A44B9B6803F0D0
:103950000C03BB61A14BDB6803F003037B617B6855
:103960001B6803F01003002B00F0E180BB69002B03
:1039700007D0BB690C2B40F088807B69012B40F09D
:103980008480964B1B6803F00203002B05D07B68F4
:103990009B69002B01D10123B3E37B681A6A8F4B2B
:1039A0001B6803F00803002B04D08C4B1B6803F04A
:1039B000F00305E0894BD3F894301B0903F0F003C2
:1039C0009A4223D97B681B6A184600F045FD0346DE
:1039D000002B01D0012394E3804A804B1B6843F005
:1039E000080313607D497D4B1B6823F0F0027B6860
:1039F0001B6A13430B607949784B5B6823F47F4261
:103A00007B68DB691B0213434B6022E0734A734BF4
:103A10001B6843F0080313607049704B1B6823F068
:103A2000F0027B681B6A13430B606C496B4B5B684D
:103A300023F47F427B68DB691B0213434B607B6886
:103A40001B6A184600F008FD0346002B01D0012335
:103A500057E300F041FC0146604B9B681B0903F0F3
:103A60000F035F4AD35C03F01F0321FA03F35D4A9F
:103A700013605D4B1B681846FFF738FC0346FB7369
:103A8000FB7B002B52D0FB7B3BE37B689B69002BCD
:103A900032D0524A514B1B6843F001031360FFF7C9
:103AA00071FC386108E0FFF76DFC02463B69D31AF0
:103AB000022B01D9032324E3484B1B6803F00203C4
:103AC000002BF0D0454A454B1B6843F008031360B8
:103AD0004249424B1B6823F0F0027B681B6A134388
:103AE0000B603E493D4B5B6823F47F427B68DB699A
:103AF0001B0213434B601AE0384A384B1B6823F013
:103B000001031360FFF73EFC386108E0FFF73AFC61
:103B100002463B69D31A022B01D90323F1E22F4B52
:103B20001B6803F00203002BF0D100E000BF7B68AC
:103B30001B6803F00103002B74D0BB69082B05D070
:103B4000BB690C2B0ED17B69032B0BD1234B1B685C
:103B500003F40033002B64D07B685B68002B60D1DA
:103B60000123CEE27B685B68B3F5803F06D11B4A38
:103B70001A4B1B6843F4803313601DE07B685B685D
:103B8000B3F5A02F0CD1154A144B1B6843F48023C6
:103B90001360124A114B1B6843F4803313600BE02F
:103BA0000E4A0E4B1B6823F4803313600B4A0B4BF9
:103BB0001B6823F4802313607B685B68002B1CD098
:103BC000FFF7E0FB386111E0FFF7DCFB02463B69E1
:103BD000D31A642B0AD9032393E200BF00100240DA
:103BE000808800086C00002064000020AE4B1B6839
:103BF00003F40033002BE7D014E0FFF7C3FB386178
:103C000008E0FFF7BFFB02463B69D31A642B01D9DA
:103C1000032376E2A44B1B6803F40033002BF0D19E
:103C200000E000BF7B681B6803F00203002B60D03C
:103C3000BB69042B05D0BB690C2B19D17B69022B06
:103C400016D1994B1B6803F48063002B05D07B6869
:103C5000DB68002B01D1012353E29349924B5B684F
:103C600023F0F8527B681B691B0613434B6040E04E
:103C70007B68DB68002B23D08B4A8B4B1B6843F49B
:103C800080731360FFF77EFB386108E0FFF77AFB73
:103C900002463B69D31A022B01D9032331E2824B3E
:103CA0001B6803F48063002BF0D07F497E4B5B6878
:103CB00023F0F8527B681B691B0613434B6018E026
:103CC000794A794B1B6823F480731360FFF75AFB22
:103CD000386108E0FFF756FB02463B69D31A022B16
:103CE00001D903230DE2704B1B6803F48063002BA2
:103CF000F0D17B681B6803F00803002B3CD07B6885
:103D00005B69002B1CD0684A674BD3F8943043F0B2
:103D10000103C2F89430FFF735FB386108E0FFF784
:103D200031FB02463B69D31A022B01D90323E8E198
:103D30005D4BD3F8943003F00203002BEFD01BE06F
:103D4000594A594BD3F8943023F00103C2F8943008
:103D5000FFF718FB386108E0FFF714FB02463B69E8
:103D6000D31A022B01D90323CBE14F4BD3F8943064
:103D700003F00203002BEFD17B681B6803F0040300
:103D8000002B00F0A5800023FB77474B9B6D03F0D1
:103D90008053002B0DD1444A434B9B6D43F080531D
:103DA0009365414B9B6D03F08053BB60BB6801235F
:103DB000FB773E4B1B6803F48073002B18D13B4A02
:103DC0003A4B1B6843F480731360FFF7DBFA3861EA
:103DD00008E0FFF7D7FA02463B69D31A022B01D954
:103DE00003238EE1314B1B6803F48073002BF0D06A
:103DF0007B689B68012B08D12B4A2B4BD3F8903062
:103E000043F00103C2F8903024E07B689B68052BE7
:103E100010D1254A244BD3F8903043F00403C2F864
:103E20009030214A204BD3F8903043F00103C2F880
:103E300090300FE01C4A1C4BD3F8903023F0010364
:103E4000C2F89030184A184BD3F8903023F004038E
:103E5000C2F890307B689B68002B16D0FFF792FA6F
:103E600038610AE0FFF78EFA02463B69D31A41F245
:103E70008832934201D9032343E10B4BD3F89030AE
:103E800003F00203002BEDD019E0FFF77BFA386155
:103E90000EE0FFF777FA02463B69D31A41F2883207
:103EA000934205D903232CE100100240007000402A
:103EB000964BD3F8903003F00203002BE9D1FB7F3F
:103EC000012B05D1914A914B9B6D23F08053936553
:103ED0007B681B6803F02003002B3CD07B685B6A87
:103EE000002B1CD0894A894BD3F8983043F001034A
:103EF000C2F89830FFF746FA386108E0FFF742FA57
:103F000002463B69D31A022B01D90323F9E07F4B08
:103F1000D3F8983003F00203002BEFD01BE07B4A6C
:103F20007A4BD3F8983023F00103C2F89830FFF7AA
:103F300029FA386108E0FFF725FA02463B69D31AEF
:103F4000022B01D90323DCE0704BD3F8983003F047
:103F50000203002BEFD17B689B6A002B00F0D0801E
:103F6000BB690C2B00F08D807B689B6A022B5AD1B9
:103F7000664A664B1B6823F080731360FFF702FAF2
:103F8000386108E0FFF7FEF902463B69D31A022BBD
:103F900001D90323B5E05D4B1B6803F00073002BD0
:103FA000F0D15A48594BDA68594B13407A68D16AB4
:103FB0007A68126B013A120111437A68526B12024D
:103FC00011437A68D26B5208013A520511437A685C
:103FD000126C5208013A520611437A68926BD2066B
:103FE0000A431343C360494A484B1B6843F080733C
:103FF0001360464A454BDB6843F08073D360FFF79C
:10400000C1F9386108E0FFF7BDF902463B69D31AF0
:10401000022B01D9032374E03C4B1B6803F00073AF
:10402000002BF0D06CE0394A384B1B6823F08073CA
:104030001360364B1B6803F00063002B05D1334A35
:10404000324BDB6823F00303D360304A2F4BDB682D
:1040500023F0887323F48033D360FFF793F938613A
:1040600008E0FFF78FF902463B69D31A022B01D90A
:10407000032346E0254B1B6803F00073002BF0D1AF
:104080003EE07B689B6A012B01D1012339E01F4B85
:10409000DB687B617B6903F003027B68DB6A9A4221
:1040A0002CD17B6903F070027B681B6B013B1B0109
:1040B0009A4223D17B6903F4FE427B685B6B1B024F
:1040C0009A421BD17B6903F078427B689B6BDB06CD
:1040D0009A4213D17B6903F4C0027B68DB6B5B08F7
:1040E000013B5B059A4209D17B6903F0C0627B68A2
:1040F0001B6C5B08013B5B069A4201D0012300E088
:10410000002318462037BD4680BD00BF0010024086
:104110008C809D0180B584B000AF786039607B6889
:10412000002B01D10123C8E0664B1B6803F0070296
:104130003B689A4210D26349624B1B6823F0070226
:104140003B6813430B605F4B1B6803F007023B683F
:104150009A4201D00123B0E07B681B6803F00103A1
:10416000002B4CD07B685B68032B07D1564B1B6838
:1041700003F00073002B21D101239EE07B685B6874
:10418000022B07D1504B1B6803F40033002B15D1D1
:10419000012392E07B685B68002B07D14A4B1B68C8
:1041A00003F00203002B09D1012386E0464B1B6874
:1041B00003F48063002B01D101237EE04249424B8E
:1041C0009B6823F003027B685B6813438B60FFF7F7
:1041D000D9F8F8600AE0FFF7D5F80246FB68D31A71
:1041E00041F28832934201D9032366E0364B9B6843
:1041F00003F00C027B685B689B009A42EBD17B6802
:104200001B6803F00203002B08D02F492E4B9B683C
:1042100023F0F0027B689B6813438B60294B1B687B
:1042200003F007023B689A4210D92649254B1B68C8
:1042300023F007023B6813430B60224B1B6803F01B
:1042400007023B689A4201D0012336E07B681B6875
:1042500003F00403002B08D01B491B4B9B6823F47D
:10426000E0627B68DB6813438B607B681B6803F04C
:104270000803002B09D01449134B9B6823F46052A8
:104280007B681B69DB0013438B6000F025F8014657
:104290000D4B9B681B0903F00F030C4AD35C03F022
:1042A0001F0321FA03F30A4A13600A4B1B681846DE
:1042B000FFF71CF80346FB72FB7A18461037BD4621
:1042C00080BD00BF0020024000100240808800082E
:1042D0006C0000206400002080B489B000AF00238F
:1042E000FB610023BB613D4B9B6803F00C033B610A
:1042F0003A4BDB6803F00303FB603B69002B05D0FE
:104300003B690C2B21D1FB68012B1ED1334B1B6861
:1043100003F00803002B07D1304BD3F894301B0A6D
:1043200003F00F03FB6105E02C4B1B681B0903F036
:104330000F03FB612A4AFB6952F82330FB613B699A
:10434000002B0DD1FB69BB610AE03B69042B02D154
:10435000244BBB6104E03B69082B01D1224BBB61BC
:104360003B690C2B33D11D4BDB6803F00303BB60AF
:10437000BB68022B02D0032B03D005E0194B7B61F5
:1043800005E0194B7B6102E0FB697B6100BF134BC9
:10439000DB681B0903F0070301337B600F4BDB680D
:1043A0001B0A03F07F037A6902FB03F27B68B2FB0E
:1043B000F3F37B61094BDB685B0E03F0030301330E
:1043C0005B003B607A693B68B2FBF3F3BB61BB699E
:1043D00018462437BD4680BC704700BF001002401D
:1043E000988800080024F40000127A0080B400AF1E
:1043F000024B1B681846BD4680BC70476C0000200D
:1044000080B500AFFFF7F2FF0146064B9B681B0A21
:1044100003F00703044AD35C03F01F0321FA03F3FC
:10442000184680BD001002409088000880B500AF9B
:10443000FFF7DCFF0146064B9B68DB0A03F007032E
:10444000044AD35C03F01F0321FA03F3184680BD2E
:10445000001002409088000880B586B000AF7860F8
:1044600000233B612A4B9B6D03F08053002B03D04C
:10447000FFF702FA786114E0254A254B9B6D43F063
:1044800080539365224B9B6D03F08053FB60FB6868
:10449000FFF7F2F978611E4A1D4B9B6D23F08053A4
:1044A00093657B69B3F5007F0BD17B68802B19D9AD
:1044B0007B68A02B02D902233B6113E001233B61FF
:1044C00010E07B68802B02D903233B610AE07B6804
:1044D000802B02D102233B6104E07B68702B01D169
:1044E00001233B610B490B4B1B6823F007023B691F
:1044F00013430B60074B1B6803F007023B699A42AA
:1045000001D0012300E0002318461837BD4680BDC6
:10451000001002400020024080B586B000AF7860F5
:104520000023FB740023BB747B681B6803F40063E7
:10453000002B2FD07B68DB6BB3F5000F05D0B3F5F4
:10454000400F15D0002B07D00FE0AC4AAB4BDB6817
:1045500043F48033D3600CE07B68043300211846B9
:1045600000F0DAF90346FB7403E00123FB7400E07A
:1045700000BFFB7C002B0BD1A049A04BD3F88830A7
:1045800023F440027B68DB6B1343C1F8883001E001
:10459000FB7CBB747B681B6803F40033002B00F0CA
:1045A000998000237B74954B9B6D03F08053002B07
:1045B00001D1012300E00023002B0DD08F4A8F4B47
:1045C0009B6D43F0805393658C4B9B6D03F0805340
:1045D000BB60BB6801237B74894A894B1B6843F429
:1045E00080731360FEF7CEFEF86009E0FEF7CAFEA6
:1045F0000246FB68D31A022B02D90323FB7405E0A1
:104600007F4B1B6803F48073002BEFD0FB7C002BE7
:1046100055D17A4BD3F8903003F440737B617B69BA
:10462000002B1ED07B681A6D7B699A4219D0734BA0
:10463000D3F8903023F440737B61704A6F4BD3F80A
:10464000903043F48033C2F890306C4A6B4BD3F80F
:10465000903023F48033C2F89030684A7B69C2F806
:1046600090307B6903F00103002B16D0FEF78AFE21
:10467000F8600BE0FEF786FE0246FB68D31A41F2B3
:104680008832934202D90323FB7406E05B4BD3F8D4
:10469000903003F00203002BECD0FB7C002B0BD1FD
:1046A0005649564BD3F8903023F440727B681B6D0B
:1046B0001343C1F8903004E0FB7CBB7401E0FB7C49
:1046C000BB747B7C012B05D14C4A4C4B9B6D23F07A
:1046D000805393657B681B6803F00103002B0AD0AD
:1046E0004649464BD3F8883023F003027B681B6AA7
:1046F0001343C1F888307B681B6803F00203002B6A
:104700000AD03E493D4BD3F8883023F00C027B6839
:104710005B6A1343C1F888307B681B6803F0200391
:10472000002B0AD03549354BD3F8883023F440624A
:104730007B689B6A1343C1F888307B681B6803F46D
:104740000073002B0AD02D492C4BD3F8883023F46A
:1047500040227B685B6B1343C1F888307B681B6821
:1047600003F48063002B0AD02449244BD3F888300B
:1047700023F440127B689B6B1343C1F888307B683D
:104780001B6803F04003002B0AD01C491B4BD3F8D5
:10479000883023F440527B68DB6A1343C1F88830C9
:1047A0007B681B6803F48073002B0AD01349134BFA
:1047B000D3F8883023F440327B681B6B1343C1F875
:1047C00088307B681B6803F40053002B2CD00B4906
:1047D0000A4BD3F8883023F040627B681B6C13438C
:1047E000C1F888307B681B6CB3F1006F0AD1034AB3
:1047F000024BDB6843F48013D36015E000100240E5
:10480000007000407B681B6CB3F1806F0CD17B683B
:1048100004330121184600F07FF80346FB74FB7C4B
:10482000002B01D0FB7CBB747B681B6803F48023E6
:10483000002B28D03049304BD3F8883023F0406229
:104840007B685B6C1343C1F888307B685B6CB3F1A9
:10485000006F06D1284A284BDB6843F48013D360ED
:1048600011E07B685B6CB3F1806F0CD17B68043323
:104870000121184600F050F80346FB74FB7C002B26
:1048800001D0FB7CBB747B681B6803F48043002B66
:104890001CD01949184BD3F8883023F040527B685C
:1048A0009B6C1343C1F888307B689B6CB3F1805FCD
:1048B0000CD17B6804330221184600F02DF8034622
:1048C000FB74FB7C002B01D0FB7CBB747B681B68FA
:1048D00003F40043002B0AD00749074BD3F8883074
:1048E00023F080427B68DB6C1343C1F88830BB7CCB
:1048F00018461837BD4680BD0010024080B400AF96
:10490000044A044B1B6843F00403136000BFBD4618
:1049100080BC70470010024080B584B000AF786062
:1049200039600023FB73734BDB6803F00303002B38
:1049300018D0704BDB6803F003027B681B689A4257
:104940000DD17B681B68002B09D06A4BDB681B0903
:1049500003F007035A1C7B685B689A4244D001232A
:10496000FB7341E07B681B68022B0CD0032B13D038
:10497000012B20D15F4B1B6803F00203002B1DD1DC
:104980000123FB731AE05B4B1B6803F48063002B6D
:1049900016D10123FB7313E0564B1B6803F400335D
:1049A000002B0FD1534B1B6803F48023002B09D13C
:1049B0000123FB7306E00123FB7304E000BF02E068
:1049C00000BF00E000BFFB7B002B0DD14948494BE5
:1049D000DB6823F073027B6819687B685B68013BC6
:1049E0001B010B431343C360FB7B002B7CD1414A6B
:1049F000404B1B6823F080631360FEF7C3FCB86074
:104A000009E0FEF7BFFC0246BB68D31A022B02D9AD
:104A10000323FB7305E0374B1B6803F00063002B97
:104A2000EFD1FB7B002B5FD13B68002B10D13148CD
:104A3000304B1B6923F0784323F4FE437A68926875
:104A400011027A68D268D2060A431343036127E051
:104A50003B68012B12D12748264B1B6923F4C00366
:104A600023F4FE437A68926811027A681269520848
:104A7000013A52050A431343036111E01D481D4BDF
:104A80001B6923F0C06323F4FE437A689268110225
:104A90007A6852695208013A52060A431343036185
:104AA000144A144B1B6843F080631360FEF76AFCE2
:104AB000B86009E0FEF766FC0246BB68D31A022B19
:104AC00002D90323FB7305E00A4B1B6803F0006364
:104AD000002BEFD0FB7B002B06D10649054B1A6952
:104AE0007B689B6913430B61FB7B18461037BD46FF
:104AF00080BD00BF0010024080B582B000AF78607A
:104B00007B68002B01D1012340E07B685B6F002BA9
:104B100006D17B68002283F87020786802F060FB81
:104B20007B6824225A677B681B687A68126812685F
:104B300022F001021A60786800F08CF90346012B1C
:104B400001D1012322E07B685B6A002B02D07868E8
:104B500000F03EFC7B681B687A681268526822F499
:104B600090425A607B681B687A681268926822F0EB
:104B70002A029A607B681B687A681268126842F0A1
:104B800001021A60786800F0C4FC03461846083732
:104B9000BD4680BD80B58AB002AFF860B9603B60A9
:104BA0001346FB80FB685B6F202B40F08180BB6865
:104BB000002B02D0FB88002B01D1012379E0FB6898
:104BC00093F87030012B01D1022372E0FB680122BF
:104BD00083F87020FB680022DA67FB6821225A679D
:104BE000FEF7D0FB7861FB68FA88A3F85020FB68D9
:104BF000FA88A3F85220FB689B68B3F5805F08D160
:104C0000FB681B69002B04D10023FB61BB68BB61FF
:104C100003E0BB68FB610023BB612DE03B680093B0
:104C20007B6900228021F86800F0B8FC0346002B65
:104C300001D003233DE0FB69002B0BD1FB681B680F
:104C4000BA691288C2F3080292B21A85BB690233AC
:104C5000BB6108E0FB681B68FA69127892B21A859A
:104C6000FB690133FB61FB68B3F852309BB2013B37
:104C70009AB2FB68A3F85220FB68B3F852309BB29B
:104C8000002BCBD13B6800937B6900224021F86860
:104C900000F084FC0346002B01D0032309E0FB68ED
:104CA00020225A67FB68002283F87020002300E06E
:104CB000022318462037BD4680BD80B58AB002AFBA
:104CC000F860B9603B601346FB80FB689B6F202B4C
:104CD00040F0BB80BB68002B02D0FB88002B01D1C9
:104CE0000123B3E0FB6893F87030012B01D102235C
:104CF000ACE0FB68012283F87020FB680022DA67D1
:104D0000FB6822229A67FEF73DFB7861FB68FA8810
:104D1000A3F85820FB68FA88A3F85A20FB689B6820
:104D2000B3F5805F0ED1FB681B69002B05D1FB68D2
:104D300040F2FF12A3F85C202DE0FB68FF22A3F8ED
:104D40005C2028E0FB689B68002B0DD1FB681B6989
:104D5000002B04D1FB68FF22A3F85C201BE0FB685A
:104D60007F22A3F85C2016E0FB689B68B3F1805FAC
:104D70000DD1FB681B69002B04D1FB687F22A3F8CF
:104D80005C2008E0FB683F22A3F85C2003E0FB689E
:104D90000022A3F85C20FB68B3F85C307B82FB68E0
:104DA0009B68B3F5805F08D1FB681B69002B04D1B9
:104DB0000023FB61BB68BB6103E0BB68FB610023B0
:104DC000BB6133E03B6800937B6900222021F868D7
:104DD00000F0E4FB0346002B01D0032336E0FB691F
:104DE000002B0CD1FB681B689B8C9AB27B8A13400A
:104DF0009AB2BB691A80BB690233BB610DE0FB68E4
:104E00001B689B8C9BB2DAB27B8ADBB21340DAB2AE
:104E1000FB691A70FB690133FB61FB68B3F85A3018
:104E20009BB2013B9AB2FB68A3F85A20FB68B3F827
:104E30005A309BB2002BC5D1FB6820229A67FB68D1
:104E4000002283F87020002300E002231846203758
:104E5000BD4680BD2DE9B04388B000AF7860002327
:104E60007B610023FB740023FB607B689A687B688E
:104E70001B691A437B685B691A437B68DB691343D0
:104E8000FB617B681A687B681B681968B54B0B402F
:104E9000F9690B4313607B681B687A681268526873
:104EA00022F440517A68D2680A435A607B689B6951
:104EB000FB617B681B68AC4A934204D07B681B6A29
:104EC000FA691343FB617B681B687A681268926811
:104ED00022F43061FA690A439A607B681B68A34A2E
:104EE000934221D1A24BD3F8883003F00303032B64
:104EF00016D801A252F823F0094F0008154F0008F8
:104F00000F4F00081B4F00080123FB7672E00223BD
:104F1000FB766FE00423FB766CE00823FB7669E008
:104F20001023FB7600BF65E07B681B68914A9342C3
:104F300034D18F4BD3F8883003F00C030C2B29D8D5
:104F400001A252F823F000BF7D4F0008954F0008E2
:104F5000954F0008954F0008894F0008954F0008AD
:104F6000954F0008954F0008834F0008954F0008A3
:104F7000954F0008954F00088F4F00080023FB76DF
:104F800038E00223FB7635E00423FB7632E0082389
:104F9000FB762FE01023FB7600BF2BE07B681B68BD
:104FA000714A934224D1724BD3F8883003F44063A2
:104FB000B3F5806F12D0B3F5806F02D8002B07D005
:104FC00012E0B3F5006F06D0B3F5406F09D00BE0E7
:104FD0000023FB760EE00223FB760BE00423FB7636
:104FE00008E00823FB7605E01023FB7600BF01E014
:104FF0001023FB767B681B685B4A934240F0E88095
:10500000FB7E082B23D801A252F823F03150000870
:105010004F500008395000084F5000083F5000081A
:105020004F5000084F5000084F50000847500008EC
:10503000FFF7E6F9F8600DE04F4BFB600AE0FFF781
:105040004BF9F86006E04FF40043FB6002E00123F7
:10505000FB7400BFFB68002B00F0AD817B685A68D1
:1050600013465B001A44FB689A4205D87B685B686C
:105070001A03FB689A4202D20123FB749BE1FB7E78
:10508000082B00F2928001A252F823F0B1500008E0
:10509000AB510008F1500008AB5100082551000841
:1050A000AB510008AB510008AB510008815100081A
:1050B000FFF7A6F903464FF000044FEA042949EA36
:1050C00013694FEA03287B685B685B084FF00004B4
:1050D00018EB030049EB04017B685B684FF00004A8
:1050E0001A462346FBF7BEF803460C467B615FE099
:1050F0007B685B685B084FF0000420494FF00002BA
:1051000013EB010844EB0209404649467B685B68A3
:105110004FF000041A462346FBF7A4F803460C465A
:105120007B6145E0FFF7D8F803461A464FF00003CD
:105130001D0245EA126514027B685B685B081A462B
:105140004FF00003A01845EB03017B685B684FF04C
:1051500000041A462346FBF785F803460C467B619C
:1051600026E000BFF369FFEF0080004000380140F7
:1051700000100240004400400024F400000024F429
:105180007B685B685B084FF0000413F5000044F196
:1051900000017B685B684FF000041A462346FBF76A
:1051A00061F803460C467B6102E00123FB7400BFFB
:1051B0007B69B3F5407F08D37B69B3F5801F04D2C8
:1051C0007B681B687A69DA60F5E00123FB74F2E022
:1051D0007B68DB69B3F5004F7FD1FB7E082B5CD881
:1051E00001A252F823F000BF0D5200082B52000814
:1051F000495200089B520008655200089B52000863
:105200009B5200089B52000883520008FFF7F8F8F1
:1052100003465A007B685B685B081A447B685B68DE
:10522000B2FBF3F39BB27B613AE0FFF7FFF8034672
:105230005A007B685B685B081A447B685B68B2FB5A
:10524000F3F39BB27B612BE07B685B685B0803F147
:10525000F47303F590437A685268B3FBF2F39BB2A0
:105260007B611DE0FFF738F803465A007B685B68F6
:105270005B081A447B685B68B2FBF3F39BB27B610B
:105280000EE07B685B685B0803F580327B685B68D7
:10529000B2FBF3F39BB27B6102E00123FB7400BF1E
:1052A0007B690F2B16D97B69B3F5803F12D27B69DE
:1052B0009BB223F00F037B817B695B089BB203F0F9
:1052C00007039AB27B8913437B817B681B687A89C9
:1052D000DA6070E00123FB746DE0FB7E082B59D887
:1052E00001A252F823F000BF0D5300082953000813
:1052F0004553000895530008615300089553000872
:1053000095530008955300087D530008FFF778F87F
:1053100002467B685B685B081A447B685B68B2FB8B
:10532000F3F39BB27B6138E0FFF780F802467B68BD
:105330005B685B081A447B685B68B2FBF3F39BB263
:105340007B612AE07B685B685B0803F5740303F507
:1053500010537A685268B3FBF2F39BB27B611CE096
:10536000FEF7BAFF02467B685B685B081A447B68FD
:105370005B68B2FBF3F39BB27B610EE07B685B681A
:105380005B0803F500427B685B68B2FBF3F39BB2FA
:105390007B6102E00123FB7400BF7B690F2B08D9FE
:1053A0007B69B3F5803F04D27B681B687A69DA6059
:1053B00001E00123FB747B6800221A667B680022EF
:1053C0005A66FB7C18462037BD46BDE8B08300BF57
:1053D00080B483B000AF78607B685B6A03F0010340
:1053E000002B0AD07B681B687A681268526822F426
:1053F00000317A68926A0A435A607B685B6A03F0FC
:105400000203002B0AD07B681B687A681268526816
:1054100022F480317A68D26A0A435A607B685B6AF8
:1054200003F00403002B0AD07B681B687A681268BB
:10543000526822F480217A68126B0A435A607B68B2
:105440005B6A03F00803002B0AD07B681B687A684C
:105450001268526822F400417A68526B0A435A601B
:105460007B685B6A03F01003002B0AD07B681B6823
:105470007A681268926822F480517A68926B0A43C3
:105480009A607B685B6A03F02003002B0AD07B687C
:105490001B687A681268926822F400517A68D26BAD
:1054A0000A439A607B685B6A03F04003002B1AD0C2
:1054B0007B681B687A681268526822F480117A68E7
:1054C000126C0A435A607B681B6CB3F5801F0AD1CB
:1054D0007B681B687A681268526822F4C0017A6897
:1054E000526C0A435A607B685B6A03F08003002BAE
:1054F0000AD07B681B687A681268526822F400211F
:105500007A68926C0A435A6000BF0C37BD4680BC73
:10551000704780B586B002AF78607B680022DA679A
:10552000FDF730FFF8607B681B681B6803F0080319
:10553000082B0ED16FF07E430093FB6800224FF4DE
:105540000011786800F02AF80346002B01D00323ED
:1055500020E07B681B681B6803F00403042B0ED15A
:105560006FF07E430093FB6800224FF4800178685F
:1055700000F014F80346002B01D003230AE07B68F7
:1055800020225A677B6820229A677B68002283F872
:105590007020002318461037BD4680BD80B584B00A
:1055A00000AFF860B9603B601346FB712AE0BB694D
:1055B000B3F1FF3F26D0FDF7E5FE02463B68D21A65
:1055C000BB699A4202D8BB69002B1BD1FB681B68E0
:1055D000FA681268126822F4D0721A60FB681B68BD
:1055E000FA681268926822F001029A60FB68202231
:1055F0005A67FB6820229A67FB68002283F87020B4
:1056000003230FE0FB681B68DA69BB681A40BB68BC
:105610009A420CBF01230023DBB21A46FB799A425F
:10562000C5D0002318461037BD4680BD80B483B076
:1056300000AF786039607B685A423B68013B134099
:1056400018460C37BD4680BC7047000080B582B05C
:1056500000AF01237B603B1D1B78012B05D0054B60
:10566000054A36210548FBF709FF00BF0837BD464C
:1056700080BD00BFD07F00089C8500081480000812
:1056800080B483B000AF7860044A7B681A607B689E
:1056900018460C37BD4680BC704700BF34850008F3
:1056A00080B582B000AF78607868FFF7E9FF78686E
:1056B00002F026F97B6818460837BD4680BD000019
:1056C00080B58AB004AFF860B9607A603B603A6830
:1056D0007B689A4206D8144B144A40F2C51114480C
:1056E000FBF7CCFEFB681B6808331B683968F86859
:1056F000984703467B617B6A02933B6A01933B6850
:1057000000937B697A68B968F86800F013F8FB6861
:105710001B680C331B687A68B968F86898477B691E
:1057200018461837BD4680BDA0800008BC8500081B
:105730001480000880B584B000AFF860B9607A606A
:105740003B60BA69FB69D31A3A68D0187A68FB697A
:10575000D31ABA681344FA691946FBF743FF3A6A49
:10576000B9683868FBF73EFF00BF1037BD4680BD03
:1057700080B582B000AF786039603B68184601F0B0
:10578000E0FF034618460837BD4680BD80B584B0AB
:1057900000AFF860B9607A60BB68002B02D0B868CF
:1057A00001F0D3FF00BF1037BD4680BD80B483B089
:1057B00000AF7860044A7B681A607B6818460C3733
:1057C000BD4680BC704700BF3485000880B582B0FC
:1057D00000AF78607B681846FFF7E8FF034A7B68F4
:1057E0001A607B6818460837BD4680BD18850008DA
:1057F000B0B584B000AF7860396000247B68002BBE
:1058000008D07B681B6808331B683968786898473C
:1058100005460EE00023FB6007F10C031846FFF776
:10582000D5FF012407F10C0339681846FFF7A0FFE4
:105830000546002C05D000BF07F10C03184601F007
:105840008BFC2B460BE0002C06D000BF07F10C03AD
:10585000184601F081FC00E000BF01F07BFF184614
:105860001037BD46B0BD80B586B000AFF860B960F6
:105870007A60FB68002B08D0FB681B680C331B6840
:105880007A68B968F868984712E000237B6107F1ED
:1058900014031846FFF79AFF07F114037A68B968F2
:1058A0001846FFF773FF07F11403184601F054FC84
:1058B00000BF1837BD4680BDB0B588B002AFF860F4
:1058C000B9607A603B600024FB68002B0ED0FB6857
:1058D0001B6810331D68FB6A0193BB6A00933B6829
:1058E0007A68B968F868A847054613E000237B6129
:1058F00007F114031846FFF769FF012407F11400AC
:10590000FB6A0193BB6A00933B687A68B968FFF74A
:10591000D7FE0546002C05D000BF07F1140318463A
:1059200001F01AFC2B460BE0002C06D000BF07F15B
:105930001403184601F010FC00E000BF01F00AFF5C
:1059400018461837BD46B0BD80B485B000AFF860CA
:10595000B9607A60FB70FB687A681A60FB68FA7855
:105960001A71FB68BA689A60FB68BA69DA60FB680A
:1059700000221A61FB6800225A61FB6800229A61CA
:10598000FB680022DA61FB6818461437BD4680BC0C
:10599000704780B582B000AF7860786800F038F862
:1059A000786800F012F87B6818460837BD4680BD5D
:1059B00080B483B000AF78607B685A697B68DA6135
:1059C00000BF0C37BD4680BC704780B582B000AFC9
:1059D00078607B681B79002B10D07B681B68002BDC
:1059E0000CD07B681B68002B08D07B681B681B6889
:1059F00004331B687A681268104698477B68002257
:105A00001A607B6800221A7100BF0837BD4680BD4E
:105A100080B582B000AF78607B685B69002B08D0EE
:105A20007B6818687B6859697B681B691A46FFF7B1
:105A30001AFF7B6800225A6100BF0837BD4680BD4F
:105A400080B582B000AF786039607B689A697B6806
:105A5000DB699A4205D37B68DA697B685B699A42A5
:105A600006D2144B144A40F2F7211448FBF706FD06
:105A70007B689B691A467B68DB69D31A1A463B68C8
:105A80009A4203D23968786800F022F9786800F009
:105A900033F802460A4B9A4206D90A4B064A40F2AC
:105AA000FB210648FBF7EAFC3B6818460837BD4671
:105AB00080BD00BFB480000858860008148000082C
:105AC000FEFFFF7FDC80000880B584B000AF786007
:105AD000396039687868FFF7B3FF0346FB607B687D
:105AE0009A69FB685B421A447B689A617B689B6990
:105AF00018461037BD4680BD80B483B000AF7860D3
:105B00007B681B697A68926911467A6852698A1AB9
:105B10009B1A18460C37BD4680BC704780B483B0D2
:105B200000AF78607B68DB691A467B685B69D31AD3
:105B300018460C37BD4680BC7047000080B582B067
:105B400000AF78607B689B69002B06D1064B074A43
:105B500040F213310648FBF791FC7B689B691846BD
:105B60000837BD4680BD00BF04810008EC860008F0
:105B70001480000880B582B000AF78607B685B69F4
:105B8000002B06D1064B074A4FF446710648FBF737
:105B900075FC7B685B6918460837BD4680BD00BF51
:105BA0000C810008208700081480000880B582B0AE
:105BB00000AF78607B68DB69002B06D1064B074A93
:105BC00040F21D310648FBF759FC7B68DB6918463B
:105BD0000837BD4680BD00BF148100085C870008FF
:105BE0001480000880B483B000AF786039607B68AF
:105BF0005A697B6819693B68CB1A134418460C37FD
:105C0000BD4680BC704780B584B000AFF860B96015
:105C10007A607968F868FFF757FF03467A68B968D1
:105C20001846FBF7DFFC00BF1037BD4680BD80B5CE
:105C300084B000AF7860396039687868FFF744FF56
:105C40000023FB60FA683B689A4209D27B689A6934
:105C5000FB68134400221A70FB680133FB60F1E714
:105C600000BF1037BD4680BD80B582B000AF786000
:105C7000396039687868FFF727FF03463A680021E2
:105C80001846FBF749FD00BF0837BD4680BD80B40C
:105C900083B000AF786039607B689A693B681A44CA
:105CA0007B689A6100BF0C37BD4680BC704780B4EA
:105CB00083B000AF786039607B68DA693B685B422B
:105CC0001A447B68DA6100BF0C37BD4680BC704760
:105CD00080B588B002AF786039607B681B697B61F2
:105CE0007868FFF709FF38617868FFF717FFF860F9
:105CF0007B69002B02D07B695B0801E07B689B68B5
:105D0000BB6007F108023B461146184600F05CFFF5
:105D100003461B687A6812691A447B681A617B68BB
:105D20001A697B68DB6813445A1E7B68DB685B4238
:105D30001A407B681A617B685B69002B11D07B6815
:105D400018687B6859697B681A69FB6801933B692D
:105D5000009313467A69FFF7AFFD02467B685A61EC
:105D60000AE07B681A687B681B6919461046FFF7D2
:105D70003FFD02467B685A617B685A697B681969F6
:105D80003B69CB1A1A447B689A617B685A69FB6845
:105D90001A447B68DA6100BF1837BD4680BD80B405
:105DA00085B000AF0346FB800223FB60FB88023313
:105DB0009BB25B009BB218461437BD4680BC70474F
:105DC00080B400AF08231846BD4680BC704780B53C
:105DD00086B002AFF860B9607A60FB70F868FA7854
:105DE000BB69009313467A68B968FFF7ADFDFB689D
:105DF00000221A62FB6800229A84FB68002283F862
:105E00002620FB68002283F82720FB6801229A6283
:105E1000FB68002283F82C20FB68012283F82D20E8
:105E2000FB6800221A63FFF711FCFB6805E0FB68C2
:105E30001846FFF7AEFD01F08DFC18461037BD4641
:105E400080BD80B582B000AF78607B68184600F0F6
:105E5000DAFE7B6818460837BD4680BD90B583B032
:105E600000AF78607B681B6B002B09D07B681C6BD4
:105E7000002C05D02046FFF7E4FF204601F040FD4E
:105E80007B681846FFF785FD7B6818460C37BD46D2
:105E900090BD80B582B000AF78607B681846FFF790
:105EA0002BFE034618460837BD4680BD80B582B03C
:105EB00000AF7860786800F009F87B681846FFF753
:105EC0003DFE034618460837BD4680BD80B582B00A
:105ED00000AF78607B6893F82730002B06D1054B24
:105EE000054A40F231410548FBF7C8FA00BF0837C0
:105EF000BD4680BD20810008488800081480000845
:105F000080B483B000AF786039607B689A6A3B6880
:105F10009A4202D27B683A689A6200BF0C37BD464B
:105F200080BC704790B583B000AF78603960396845
:105F30007868FFF7E5FF7C687B681846FFF7DCFDB3
:105F4000034639681846FFF771FB03461946204699
:105F5000FFF76DFE00BF0C37BD4690BD80B584B025
:105F600000AFF860B9607A60FB687A68B968184673
:105F7000FFF749FE00BF1037BD4680BD80B586B033
:105F800000AFF8600B467A607B817B683B617B8960
:105F9000BB82FB6807F110021146184600F048FE6C
:105FA000FB681B6A5A1CFB681A62FB68243307F102
:105FB0000A021146184600F055FE03461A88FB688F
:105FC0009A8400BF1837BD4680BD000080B582B0FE
:105FD00000AF7860396004217868FFF7A3FF3B6861
:105FE000002B06D07868FFF754FF02463B689A42C0
:105FF00006D2094B094A40F28F410948FBF73EFAA5
:106000007868FFF746FF02463B68D31A0433184608
:106010000837BD4680BD00BF2C810008F08700080E
:106020001480000880B582B000AF78607B6893F878
:10603000263083F00103DBB2002B06D10A4B0B4A5A
:1060400040F29C410A48FBF719FA7B681B6A002B57
:1060500006D0084B054A40F29E410548FBF70EFA70
:1060600000BF0837BD4680BD448100082486000873
:10607000148000084C81000880B582B000AF7860C1
:106080007868FFF7CFFF7B68012283F826207868C5
:10609000FFF7FFFE034618460837BD4680BD0000E7
:1060A00090B591B000AF786039607B6893F8263086
:1060B000002B06D18B4B8C4A40F2AE418B48FBF74C
:1060C000DDF90021786800F0E1FD03467B637B6821
:1060D0009B8C02339BB27B820020FFF760FE03465D
:1060E000BB8207F1140207F112031146184600F0B3
:1060F000B9FD03461A887B689A847A687B689B8C12
:1061000019461046FFF7B0FD7A6B3B68D31A3B6324
:106110003B6BB3F5803F06D3754B734A40F2BD41EC
:106120007248FBF7ABF97B681846FFF707FD03469B
:1061300002333A6B92B21146184600F0C7FD7B68F5
:106140001846FFF7FBFC02467B689B8C19461046FD
:1061500000F0BCFD7B681846FFF728FD02467B680F
:106160001B6ADB005B421344FB637B681846FFF746
:106170001DFD0246FB6B9A428CBF01230023DBB25C
:10618000002B2ED0FB6BFB627B6B9AB2FB6A1B6809
:106190009BB2D31A7B857B681846FFF7CFFC02467B
:1061A000FB6A9B881344184600F0A2FD0346002BAF
:1061B00006D0504B4C4A40F2C7414C48FBF75EF9C1
:1061C0007B681846FFF7BAFC0246FB6A9B881344BB
:1061D0007A8D1146184600F079FDFB6B0833FB639E
:1061E000C3E7786800F088F87B681846FFF7A6FCDC
:1061F00003467B62786A00F07BFD03467B84786807
:10620000FFF747FE0346FB607B6893F82D30002BB9
:1062100040D07B681846FFF7ADFC0346BB637B6844
:106220001846FFF7C3FC0246BB6B9A428CBF0123A2
:106230000023DBB2002B2DD0BB6BFB617A68FB69BE
:106240001B6819461046FFF7CDFCB861BB691B8877
:10625000FB827A8CFB8A9A4217D17B8C1A46796A28
:10626000B869FBF78FF90346002B0ED1FB691B6859
:10627000FB607C687868FFF70CFE02467B6BD31AE4
:1062800019462046FFF703FD04E000BFBB6B043353
:10629000BB63C4E77868FFF7FCFD0246FB689A42DF
:1062A0000CBF01230023DBB2002B06D07B6807F173
:1062B0000C021146184600F029FD7B68796B1846E0
:1062C000FFF790FCFB681A467B6BD31A194600F067
:1062D00034FD7B68002283F826207B6B1846443708
:1062E000BD4690BD5C8100089486000814800008BB
:1062F000648100088081000880B582B000AF7860BA
:106300007A687B681B6ADB0019461046FFF7CFFCF2
:106310007B6800221A627B6800229A8400BF0837DB
:10632000BD4680BD90B585B000AFF860B9607A60B9
:106330007968F868FFF7E4FDFC68F868FFF7A9FDE5
:106340000246BB68134479681846FFF76FF90346A5
:1063500019462046FFF76BFC00BF1437BD4690BDC1
:1063600080B584B000AFF860B9607A60FB70F868FF
:10637000FFF758FEFB681846FFF71AFBFB78002B67
:1063800001D0082200E004227B68002B01D0042306
:1063900000E00023D118FB689B6A1A46F868FFF7F3
:1063A000C1FF7B68002B11D07868FCF769F80346C1
:1063B000042B06D0134B144A40F23E711348FBF7EE
:1063C0005DF804227968F868FFF7C8FDB968F868D5
:1063D000FFF7FCFD03461946F86800F0BDFCFB78AA
:1063E000002B07D0F868FFF754FD03461946F868FC
:1063F00000F0B2FCFB68012283F8272000BF1037B1
:10640000BD4680BDBC810008988700081480000844
:1064100090B583B000AF78607C687B68184600F068
:10642000BBFC03465B42234418460C37BD4690BD77
:1064300080B584B000AF78600B467B807868FFF74A
:10644000E7FF0346FB60F86800F052FC03467B81DF
:106450007A887B899A4207DA7B88FA68134418465F
:1064600000F046FC034600E0002318461037BD4606
:1064700080BD80B582B000AF78607B6800220421C7
:10648000184600F097FC0346DBB218460837BD46B5
:1064900080BD80B582B000AF78607B6800220621A5
:1064A000184600F087FC0346DBB218460837BD46A5
:1064B00080BD80B582B000AF78607B680022082183
:1064C000184600F077FC034618460837BD4680BDE5
:1064D00080B582B000AF78607B6800220A21184640
:1064E00000F068FC034618460837BD4680BD80B5FD
:1064F00082B000AF78600B46FB707B681868FA7852
:106500000023042100F074FC00BF0837BD4680BDA5
:1065100080B582B000AF78600B46FB707B6818686E
:10652000FA780023062100F063FC00BF0837BD465F
:1065300080BD80B582B000AF786039607B68186834
:1065400000233A68082100F053FC00BF0837BD461D
:1065500080BD80B582B000AF786039607B68186814
:1065600000233A680A2100F043FC00BF0837BD460B
:1065700080BD80B582B000AF786039607B683A68D2
:106580001A607B681B681846FFF776FD02467B6839
:106590005A607B6818460837BD4680BD80B584B018
:1065A00000AF78607B681A687B685B6819461046A4
:1065B000FFF776FD0346FB6007F10803F96818460C
:1065C00000F043FCBB6818461037BD4680BD80B55F
:1065D00082B000AF7860786800F045FC034618464A
:1065E0000837BD4680BD80B582B000AF78603960A5
:1065F00000223968786800F042FC00BF0837BD46C9
:1066000080BDB0B584B002AF786039607B683A680D
:106610001A607B681C1D7B681D68FFF7D1FB034671
:1066200000930023002229462046FFF7D0FB7B6819
:1066300003F138027B68043319461046FFF799FFCF
:106640007B6806E07B6804331846FFF707FC01F01F
:1066500081F818460837BD46B0BD80B582B000AF9E
:1066600078607B6804331846FFF7F8FB7B681846B0
:106670000837BD4680BD80B582B000AF7860396014
:106680003B68002B01D1002303E03868FFF79FFF30
:10669000034618460837BD4680BD80B586B000AFBA
:1066A000F8607B600B46FB721346BB727B6A002B63
:1066B00001D1002337E0FB683833FA7A11461846D7
:1066C000FFF715FFFB683833BA7A11461846FFF713
:1066D0001FFFFB68383379681846FFF72AFFFB680D
:1066E0003833396A1846FFF734FFFB6838331846E9
:1066F000FFF754FF03463B61FB68043339691846D2
:10670000FFF771FFFB6804331846FFF7CFFB034622
:106710007B61FB6804331846FFF7BBFB03461A4650
:106720007B6A1A607B6918461837BD4680BD80B504
:1067300082B000AF786039603B68002B01D1002344
:1067400003E03868FFF795FE034618460837BD4654
:1067500080BD80B582B000AF786039603B68002BA7
:1067600001D1002303E03868FFF793FE0346184683
:106770000837BD4680BD80B582B000AF7860396013
:106780003B68002B02D14FF0FF3303E03868FFF77E
:1067900090FE034618460837BD4680BD80B582B0DE
:1067A00000AF786039603B68002B02D14FF0FF33B7
:1067B00003E03868FFF78CFE034618460837BD46ED
:1067C00080BD000080B5C2B002AFFCF777FD00F0DD
:1067D000A1F800F09FF900F069F900F033F9002307
:1067E000C7F8E83007F18403642200211846FAF75D
:1067F00093FF07F1440364211846FFF702FF3B466D
:1068000064211846FFF7FDFE07F1E8014FF6FF731C
:1068100004223D48FEF751FA07F1E8031B689AB2DB
:1068200007F184014FF6FF733748FEF746FA07F188
:1068300084023B4611461846FFF71DFF0346C7F882
:10684000FC303B46D7F8FC101846FFF770FF0346B4
:1068500087F8FB303B46D7F8FC101846FFF779FF66
:10686000034687F8FA303B46D7F8FC101846FFF786
:1068700082FF0346C7F8F4303B46D7F8FC101846B1
:10688000FFF78CFF0346C7F8F03097F8FB30012B79
:1068900000D028E097F8FA30072B00D022E04FF024
:1068A000FF333B64384607F140030193174B0093D5
:1068B000174B1C220221FFF7F0FE0346C7F8EC300D
:1068C00007F140014FF6FF7304220F48FEF762F90B
:1068D0003B6C9AB24FF6FF73D7F8EC100A48FEF7FC
:1068E00059F900BF00BF3B461846FFF7B6FE86E7E2
:1068F0003B461846FFF7B1FEFFE707F14403184691
:10690000FFF7ABFE00F026FFA00000208C9954009A
:106910006514220080B5ACB000AF07F16C034422CF
:1069200000211846FAF7F8FE07F1580300221A6012
:106930005A609A60DA601A613B1D542200211846A1
:10694000FAF7EAFEFCF78AFF3D4A3D4BD3F8903058
:1069500023F01803C2F890301423FB6601237B67F1
:106960000123C7F884300023C7F888306023C7F8B4
:106970008C300223C7F894300123C7F898300123E4
:10698000C7F89C301023C7F8A0300723C7F8A430FD
:106990000223C7F8A8300223C7F8AC3007F16C0314
:1069A0001846FCF7C9FF0346002B14BF0123002340
:1069B000DBB2002B01D000F0F7F80F23BB650323F7
:1069C000FB6500233B6600237B660023BB6607F163
:1069D000580301211846FDF79DFB0346002B14BF09
:1069E00001230023DBB2002B01D000F0DDF80323EC
:1069F0007B6000237B620023BB623B1D1846FDF7D2
:106A00008BFD0346002B14BF01230023DBB2002BB8
:106A100001D000F0C9F84FF40070FCF739FF0346CD
:106A2000002B14BF01230023DBB2002B01D000F0A8
:106A3000BBF8FDF763FF00BFB037BD4680BD00BFA8
:106A40000010024080B500AF164B174A1A60154B74
:106A50004FF461225A60134B00229A60114B0022BE
:106A6000DA60104B00221A610E4B0C225A610D4B5A
:106A700000229A610B4B0022DA610A4B00221A6253
:106A8000084B00225A620748FEF736F80346002BEF
:106A900014BF01230023DBB2002B01D000F084F8E7
:106AA00000BF80BDA00000200038014080B500AFCD
:106AB000164B174A1A60154B4FF4E1325A60134BCC
:106AC00000229A60114B0022DA60104B00221A61FA
:106AD0000E4B0C225A610D4B00229A610B4B002287
:106AE000DA610A4B00221A62084B00225A620748F8
:106AF000FEF702F80346002B14BF01230023DBB28C
:106B0000002B01D000F050F800BF80BD2001002014
:106B10000044004080B588B000AF07F10C030022AC
:106B20001A605A609A60DA601A611D4A1C4BDB6C6D
:106B300043F00403D3641A4BDB6C03F00403BB6023
:106B4000BB68174A164BDB6C43F00103D364144B4C
:106B5000DB6C03F001037B607B68114A104BDB6C3C
:106B600043F00203D3640E4BDB6C03F002033B6083
:106B70003B68002208210B48FCF758FE0823FB6005
:106B800001233B6100237B610023BB6107F10C0300
:106B900019460448FCF7E2FC00BF2037BD4680BD23
:106BA000001002400004004880B400AF00BFBD46A2
:106BB00080BC704780B483B000AF78607B681846B3
:106BC0000C37BD4680BC704780B483B000AF78609E
:106BD00039607B681A683B681B689A4201D23B683F
:106BE00000E07B6818460C37BD4680BC704780B516
:106BF00082B000AF7860786800F051F97B68184681
:106C00000837BD4680BD80B582B000AF7860786837
:106C100000F070F903461946786800F04CF97B687B
:106C20001846FFF7E4FF7B6818460837BD4680BD6D
:106C300080B582B000AF7860396008217868FEF7CF
:106C4000FFFE7B68DB693A6892E8030083E8030093
:106C50007B68DB6903F108027B68DA6100BF0837F3
:106C6000BD4680BD80B483B000AF786039607B687A
:106C70001B881A463B681B889A4201DA3B6800E091
:106C80007B6818460C37BD4680BC704780B584B021
:106C900000AF78603960786800F037F9386800F044
:106CA0003DF90346FB6004217868FFF73BF97B68F8
:106CB00007F10C021146184600F03AF97868FFF720
:106CC000E8F8034618461037BD4680BD80B582B04F
:106CD00000AF78600B467B807B88184600F03AF95D
:106CE00003461A467B681A8000BF0837BD4680BD40
:106CF00080B582B000AF78607B681B88184600F0D2
:106D000029F9034618460837BD4680BD80B582B0D4
:106D100000AF7860396004217868FEF791FE7B68E7
:106D2000DB693A6812681A607B68DB691A1D7B6848
:106D3000DA6100BF0837BD4680BD80B582B000AFC4
:106D400078603960386800F0E9F802467B681A60BC
:106D500000BF0837BD4680BD80B584B000AF786005
:106D60003960786800F001F93868FFF723FF0346BF
:106D7000FB6004217868FFF7D5F87B6807F10C0207
:106D80001146184600F0FAF87868FFF782F80346D3
:106D900018461037BD4680BD80B582B000AF786020
:106DA0007B681B68184600F0B9F803461846083798
:106DB000BD4680BD80B586B000AFF8600B467A60F6
:106DC0007B817B891946F868FFF732FB0346FB821B
:106DD000FB8A002B07D0FA68FB8A13441846FFF79A
:106DE000DBFF034600E07B6818461837BD4680BDD0
:106DF00080B586B000AFF8607A603B600B467B815F
:106E00003968786800F0CCF80346002B09D0FB689D
:106E100093F82C3083F00103DBB2002B01D0012367
:106E200000E00023002B0CD17968F868FFF72EFFF3
:106E300003467B617B897A691946F868FFF79EF8FB
:106E400000E000BF1837BD4680BD80B483B000AFFE
:106E5000786039607B683A681A607B6818460C373E
:106E6000BD4680BC704780B582B000AF786078685E
:106E700000F0A7F8034618460837BD4680BD80B528
:106E800084B000AFF860B9607A60B96800237A68AE
:106E9000F868FFF765FA00BF1037BD4680BD80B5C2
:106EA00082B000AF7860786800F09DF87B68184683
:106EB0000837BD4680BD80B584B000AF78603960CA
:106EC0003B68002B12D0386800F097F8034619464B
:106ED0007868FFF7F0FF386800F09AF8F8603968D2
:106EE000786800F0A0F8FB683B60E9E700BF103766
:106EF000BD4680BD80B483B000AF78607B689B687E
:106F000018460C37BD4680BC704780B483B000AFD4
:106F1000786000BF0C37BD4680BC704780B483B03A
:106F200000AF78607B6818460C37BD4680BC704760
:106F300080B582B000AF7860396004217868FEF7D0
:106F4000C3FD7B689B693A6812681A6000BF083706
:106F5000BD4680BD80B483B000AF0346FB80FB8894
:106F600018460C37BD4680BC704780B483B000AF74
:106F7000786000BF0C37BD4680BC704780B582B0DA
:106F800000AF7860396004217868FEF79DFD7B686A
:106F90009B693A6812681A6000BF0837BD4680BD19
:106FA00080B483B000AF786039607A683B689A42F9
:106FB0000CBF01230023DBB218460C37BD4680BC52
:106FC000704780B582B000AF7860FEF73FFB7B680A
:106FD0001B681846FFF7EEFD02467B68134418460F
:106FE0000837BD4680BD80B483B000AF78607B6851
:106FF00018460C37BD4680BC704780B483B000AFE4
:1070000078607B68DB6818460C37BD4680BC7047EB
:1070100080B483B000AF78607B689B6818460C37FB
:10702000BD4680BC704780B582B000AF78603960E3
:107030003968786800F008F83968786800F019F85D
:1070400000BF0837BD4680BD90B583B000AF786003
:107050003960786800F01FF80446386800F025F8B9
:1070600003461946204600F02EF800BF0C37BD46F7
:1070700090BD80B582B000AF78603960786800F06C
:107080000AF8034601223968184600F029F800BFC3
:107090000837BD4680BD80B483B000AF78607B68A0
:1070A00018460C37BD4680BC704780B582B000AF33
:1070B00078607B681033184600F021F803461846C4
:1070C0000837BD4680BD80B582B000AF78603960BA
:1070D0003968786800F01FF800BF0837BD4680BDEA
:1070E00080B584B000AFF860B9607A607A68B9683A
:1070F000F86800F01AF800BF1037BD4680BD80B5B3
:1071000082B000AF7860786800F01CF8034618463B
:107110000837BD4680BD80B483B000AF7860396069
:1071200000BF0C37BD4680BC704780B584B000AF4F
:10713000F860B9607A60B86800F0E2FB00BF103711
:10714000BD4680BD80B483B000AF78607B681846D0
:107150000C37BD4680BC704780B582B000AF786008
:10716000054A7B681A607B681846FEF789FA7B68D7
:1071700018460837BD4680BD1885000880B582B026
:1071800000AF78607868FFF7E7FF786800F0B8FB39
:107190007B6818460837BD4680BD000080B483B0C8
:1071A00000AF0E4A0D4B1B6E43F0010313660B4BF1
:1071B0001B6E03F001037B607B68084A074B9B6DE5
:1071C00043F080539365054B9B6D03F080533B6008
:1071D0003B6800BF0C37BD4680BC704700100240C2
:1071E00080B58CB000AF786007F11C0300221A60F4
:1071F0005A609A60DA601A617B681B68384A934269
:107200002AD1384A374B1B6E43F480431366354B03
:107210001B6E03F48043BB61BB69324A314BDB6CAC
:1072200043F00103D3642F4BDB6C03F001037B615C
:107230007B694FF4C063FB6102233B6200237B62E6
:107240000323BB620723FB6207F11C0319464FF0BF
:107250009040FCF783F93FE07B681B68224A934229
:107260003AD1204A1F4B9B6D43F4003393651D4B6D
:107270009B6D03F400333B613B691A4A194BDB6C8D
:1072800043F00103D364174BDB6C03F00103FB6095
:10729000FB680423FB6102233B6200237B62032320
:1072A000BB620723FB6207F11C0319464FF09040B5
:1072B000FCF754F94FF40043FB6102233B620023C7
:1072C0007B620323BB620323FB6207F11C031946A5
:1072D0004FF09040FCF742F900BF3037BD4680BD0B
:1072E00000380140001002400044004080B400AF6C
:1072F00000BFBD4680BC704780B400AFFEE780B4DD
:1073000000AFFEE780B400AFFEE780B400AFFEE759
:1073100080B400AF00BFBD4680BC704780B400AFF2
:1073200000BFBD4680BC704780B400AF00BFBD4603
:1073300080BC704780B500AFFCF712F800BF80BD7D
:1073400080B400AF01231846BD4680BC704780B5AD
:1073500082B000AF78603960FAF7B4F802461623BD
:1073600013604FF0FF3318460837BD4680BD80B527
:1073700082B000AF78604FF0FF317868FFF7E7FF29
:10738000FEE790B587B000AFF860B9607A6000237F
:107390007B610AE0BC68631CBB60AFF300800346FE
:1073A000DBB223707B6901337B617A697B689A4227
:1073B000F0DB7B6818461C37BD4690BD80B586B0B3
:1073C00000AFF860B9607A6000237B6109E0BB68B8
:1073D0005A1CBA601B781846AFF300807B690133F2
:1073E0007B617A697B689A42F1DB7B6818461837C3
:1073F000BD4680BD80B584B000AF7860114B1B687E
:10740000002B02D10F4B104A1A600E4B1B68FB6019
:107410000C4B1A687B6813446A46934207D9FAF703
:1074200051F802460C2313604FF0FF3306E0054B82
:107430001A687B681344034A1360FB6818461037C8
:10744000BD4680BDA0010020B801002080B483B0FB
:1074500000AF78604FF0FF3318460C37BD4680BC54
:10746000704780B483B000AF786039603B684FF4F8
:1074700000525A60002318460C37BD4680BC704746
:1074800080B483B000AF7860012318460C37BD4646
:1074900080BC704780B485B000AFF860B9607A6096
:1074A000002318461437BD4680BC704780B400AF37
:1074B000124A124B1B6843F0010313600F4B00226A
:1074C0009A600E4A0D4B1B6823F0A85323F4102337
:1074D00013600A4B4FF48052DA60084A074B1B686E
:1074E00023F480231360054B00229A61044B4FF074
:1074F00000629A6000BFBD4680BC70470010024029
:1075000000ED00E0DFF834D0002103E00C4B5B58C5
:10751000435004310B480C4B42189A42F6D30B4AA5
:1075200002E0002342F8043B094B9A42F9D3FFF7EB
:10753000BDFFF9F7EFFFFFF745F9FEE70000012077
:10754000D091000800000020780000207800002082
:10755000B8010020FEE7000010B5034B03600446AD
:1075600000F09EF8204610BD0489000810B50446BE
:10757000FFF7F2FF20460C2100F0E5F8204610BD91
:107580002DE9F041069E964280460F4614461D4660
:1075900003D1194600F099F958B9D8F808000368E2
:1075A00006961E6A22462B463946B446BDE8F0418F
:1075B00060470620BDE8F0812DE9F14F0E461946DF
:1075C0008346174699460A9CDDF82CA0DDF83080EA
:1075D0000D9D00F07AF990B1002E2C602F7109DB1F
:1075E0003444A0450CBF06240124AC71002001B036
:1075F000BDE8F08F0236F9D10123AB71F6E74445BF
:1076000004D15146584600F060F988B9DBF808000B
:1076100003680D95CDF83080CDF82CA00A94DC6974
:107620003A464B463146A44601B0BDE8F04F6047AC
:107630006F71DBE72DE9F04104460D4616461F4603
:1076400000F042F848B9A06803689C6932463B469E
:107650002946A446BDE8F0416047BDE8F0817FB50A
:10766000102302930368002415469E6900946B461C
:107670008DF8044003941268B0479DF8043003F07D
:107680000603062B03BF009B2B600120204604B09D
:1076900070BD009890420CBF06200120704700008A
:1076A00010B5034B0360044600F00CF9204610BDF2
:1076B0006089000810B50446FFF7F2FF2046082154
:1076C00000F041F8204610BD38B515461C4600F0C4
:1076D000FCF820B10823E36006232560237138BD40
:1076E0002DE9F04105460C4616461F4600F0EDF820
:1076F00048B9032F07D823683246294620465B69DC
:10770000BDE8F0411847BDE8F0812DE9F041069E43
:10771000099C9846089B9E420746154603D1079947
:1077200000F0D3F858B94146384600F0CEF818B109
:10773000012326602571A3710020BDE8F0816571E9
:10774000FAE700F0DFB800F0DBB800F0D9B808B510
:1077500000F092FB1EB400F09CF81EBCF9F77CFC14
:107760000378472B17D143784E2B14D18378552BB0
:1077700011D1C378432B0ED10379432B0BD143791D
:107780002B2B08D183792B2B05D1C07901288CBFF5
:107790000020012070470020704700002DE9F341D0
:1077A0001E460378472B0D460246C17948D14378DF
:1077B0004E2B45D18378552B42D1C378432B3FD1F3
:1077C0000379462B3CD143794F2B39D18379522B06
:1077D00036D1002934D101230846002401943BBB53
:1077E00040BB01290ABF52F8203CA2F12003783B9C
:1077F000012908BF52F8202C1C6818BF583201928A
:10780000236820469B689847B0B1019B1B68019391
:1078100002272B6801AAD3F81080214601232846AD
:10782000C04758B1019B3360384602B0BDE8F081D3
:10783000074CE5E7074CE3E70127EAE70746F3E7EC
:107840001046FFF78DFF80F00100C0B20023C4E7AF
:107850009C890008A489000810B5044600F04CF883
:1078600002462046A4F12001FFF77AFF60B154F8E8
:10787000043C0133012B44F8043C03D1936844F8E1
:10788000083C9160012010BD9368002BF9D000F0F6
:10789000F3FA10B500F030F8826801460AB900F03A
:1078A000EBFA02F120042046FFF75AFF40B1D369FA
:1078B000013BD36113B9906988609361204610BD84
:1078C0008860FBE7704700207047814208B50ED002
:1078D000406803782A2B0CD049680B782A2B08BF04
:1078E0000131FAF761FCB0FA80F0400908BD0120CF
:1078F00008BD002008BD000000487047A40100201A
:10790000F9F738BE10B5002814BF044601242046FC
:10791000F9F728FE30B900F09BFA08B9F9F7A6FD8F
:107920008047F4E710BD70B50023A0EBC006C0EBA4
:10793000C00210F8015B941905F07F02A2401343C6
:107940002A06F4D40B6070BD30B500231A4610F837
:10795000014B04F07F0595402B43250602F10702F9
:10796000F5D41F2A06D8640642BF4FF0FF3404FA4C
:1079700002F213430B6030BD5028F7B505460E46A2
:1079800014461F4607D1D01C20F0030050F8043BDA
:107990003B6003B0F0BD00F00F030C2B2ED8DFE8E6
:1079A00003F025071D25292D2D2D2D182125290012
:1079B00001A92046FFF7B7FF019B002BE8D005F097
:1079C0007002102A08BF264633442A0648BF1B68A7
:1079D000DEE701A92046FFF7B7FFEDE7204630F8C4
:1079E000023BEAE7204630F9023BE6E7204650F842
:1079F000043BE2E7204650F8083BDEE7F9F736FDA6
:107A000008B50346FF2B084607D003F07003202B70
:107A10000DD004D80BB1102B07D1002008BD402B8E
:107A20000DD0502BF9D0302B05D0F9F71FFDBDE854
:107A30000840F9F711BDBDE80840F9F711BDBDE8F0
:107A40000840F9F7F9BC70B50C46014620461546CA
:107A50001E46FFF7D5FF33462A4601462046BDE8BD
:107A60007040FFF789BF73B50E461446054628B32C
:107A7000F9F7E2FC20603178FF2906F101021ED0FF
:107A8000231D2846FFF7DFFF024613782375FF2BDF
:107A900002F1010015D01023237501A9FFF743FF60
:107AA000019B0344E3600378637501A90130FFF78C
:107AB0003AFF019B0344236102B070BDDAE76060C6
:107AC000E3E70023EEE71FB503AB009300230A466C
:107AD0001946F8F71BFF039805B05DF804FB00009A
:107AE0002DE9F04F91B00023049300F00303012B24
:107AF00007460C46164611D003D3022B03D0F9F7E4
:107B0000B5FC02071AD531462046F9F781FC18B1B9
:107B1000092011B0BDE8F08F0820FAE700F0080551
:107B200005F0FF0885BBD1F8209010460D21FFF726
:107B3000CAFF814540F04081062500E0012510ABD9
:107B400007F0080743F82C4D009300233D430C2217
:107B500019463046F8F700FF062D40F03981D4F879
:107B60003080A76AE16AB8F1000F0CBF4FF0010A3C
:107B70004FF0030A15F0080500F0CE80BAF1010FAE
:107B800040F0C68000F078F90225D8E7079A134440
:107B90009F4280F03781DDF82080B8F1000F01D0DE
:107BA0000B9B9844099F17B1781E0E9F0744B8F1AC
:107BB000000FA8D0002F00F0A18015F00803029359
:107BC00036D0472323704E2363705523A37043237D
:107BD000E370462323714F2363715223A371002363
:107BE000E3714FF0000A6FF0030B07A93846FFF767
:107BF000ABFE08A90390FFF7A7FE079A002A76D0EC
:107C00003DDD9DF83C00FF2835D000F00703042B34
:107C10003FF675AF01A151F823F000BF7B7C00084F
:107C2000FF7A0008437C00087B7C0008737C000816
:107C3000E379012B0CBF54F8203C04F15803049362
:107C4000CFE702270D9909AB07FB12120C99FFF73A
:107C500093FE099969B32CB104AB00222046FFF7CB
:107C60009DFD30BB089F002F44D0039B3B441F4623
:107C7000BBE70827E6E70027E4E70427E2E70D9FD4
:107C800001326CB3029B5BBB049B06930BFB02723D
:107C9000171F57F8041F41B106AB00223944204694
:107CA000FFF77CFD0028F4D0012181F001010029BB
:107CB000D8D0079F4FF0030AEB0727D5BAF1020F80
:107CC0003FF421AF0D213046049DFFF7FCFE6562B5
:107CD0002062A762C4F82C90C4F83080062018E710
:107CE0000BFB02F2B958B1FA81F14909DFE74FF015
:107CF000010AB7E7BAF1000F3FF405AF4FF0020AEF
:107D0000DAE70027B8464FF0010AD5E7494631E7E0
:107D1000002F23DA00F0C2F8BAF1010F02D1204699
:107D200000F0DEF8002F19DA0AAA3046FFF79BFEB2
:107D300031469DF83C00FFF763FE6FF0030307FB3D
:107D400003320D9B0C90134453F825200AB10135E2
:107D5000FAE70422A562E0622263636310AB304657
:107D600043F81C4D009300231A461946F8F7F4FD1A
:107D700010AB012243F8207D0093002319463046C2
:107D8000F8F7EAFD0F213046FFF79DFE10AB00F03B
:107D9000010040EA080043F8240D009300230F225D
:107DA00019463046F8F7D8FDBAF1020F02D1204645
:107DB000FFF752FD0720ACE610AA434642F82C4DCF
:107DC0004146009230460C2245F00205F8F7C4FD0A
:107DD0003046F9F737FB814600283FF494AE0AAAF3
:107DE00001463046FFF73FFE314680469DF83C0095
:107DF000FFF706FE0F210C903046FFF764FE20F0DF
:107E00000100471E0E9B9845BFF47BAF424606AB70
:107E10009DF83D100020FFF716FE07AB02469DF8C7
:107E20003D100020FFF70FFE08AB02469DF83D1005
:107E30000020FFF708FE09A9FFF775FD069A0A9BC7
:107E400013449F428046BFF4A1AEDDF83880D9E7E5
:107E5000024B1868BFF35B8F704700BFB001002072
:107E600008B58047F9F702FB024B1868BFF35B8F38
:107E7000704700BF7400002008B5FFF7F5FFFFF75B
:107E8000EFFF08B58047FFF7F7FF0000024B1868C7
:107E9000BFF35B8F704700BF7000002008B5FFF78D
:107EA000F5FFFFF7EEFF0378472B17D143784E2BF2
:107EB00014D18378552B11D1C378432B0ED103797C
:107EC000432B0BD143792B2B08D183792B2B05D155
:107ED000C07901288CBF0020012070470020704726
:107EE00010B5044648B100F03BF82046FFF7DBFF31
:107EF00018B154F8140CFFF7B3FFFFF7BDFF38B506
:107F00000246FFF7D0FF40B152F8184C002510464A
:107F100000F026F825B1FFF7C1FF04460125F6E77A
:107F20002046FFF7AEFF0378472B17D143784E2B3F
:107F300014D18378552B11D1C378432B0ED10379FB
:107F4000432B0BD143792B2B08D183792B2B05D1D4
:107F5000C07901288CBF00200120704700207047A5
:107F600038B50546FFF7C8FC014602682846A5F16A
:107F70002004FFF7D8FF30B90AB1FFF77DFF0C608E
:107F80001446204638BD55F80C3C002BB4BFC3F155
:107F90000103013345F80C3C4B68A24203F1FF3367
:107FA0004B6028461CBF45F8102C0C606C6AF8F733
:107FB000A5FCE6E7F8B500BFF8BC08BC9E467047D4
:107FC000F8B500BFF8BC08BC9E4670470000000032
:107FD0002A7265696E746572707265745F6361732D
:107FE000743C63686172202A3E2826656E6469616C
:107FF0006E7465737429203D3D20464C41544255B2
:1080000046464552535F4C4954544C45454E4449AD
:10801000414E00002F686F6D652F6579616C2F2EC2
:10802000636F6E616E2F646174612F666C61746240
:108030007566666572732F312E31312E302F676F62
:108040006F676C652F737461626C652F7061636B11
:108050006167652F6430656336326663303332653D
:10806000356131303532346661343534353436611A
:108070006131626462623232626166382F696E63B6
:108080006C7564652F666C61746275666665727383
:108090002F666C6174627566666572732E68000087
:1080A0006E65775F73697A65203E206F6C645F73DD
:1080B000697A65006375725F203E3D20736372616B
:1080C0007463685F20262620736372617463685F3F
:1080D000203E3D206275665F0000000073697A658E
:1080E0002829203C20464C4154425546464552538F
:1080F0005F4D41585F4255464645525F53495A4588
:10810000000000006375725F000000006275665F2A
:1081100000000000736372617463685F0000000018
:1081200066696E6973686564000000006F666620AA
:108130002626206F6666203C3D2047657453697A89
:1081400065282900216E657374656400216E756D64
:108150005F6669656C645F6C6F6300006E65737465
:10816000656400007461626C655F6F626A65637468
:108170005F73697A65203C203078313030303000D0
:1081800021526561645363616C61723C766F66660F
:108190007365745F743E286275665F2E64617461F6
:1081A0002829202B206669656C645F6C6F6361749D
:1081B000696F6E2D3E696429000000007374726C53
:1081C000656E2866696C655F6964656E7469666969
:1081D000657229203D3D206B46696C654964656E7A
:1081E0007469666965724C656E67746800000000AA
:1081F000466C61744275666665727320312E31314A
:108200002E300000496E697456616C75650000007F
:10821000436C69656E74546F5069636B746F6F6CF7
:10822000000000005069636B746F6F6C546F436C97
:1082300069656E7400000000436C69656E74546F6C
:1082400054776973746572005477697374657254F6
:108250006F436C69656E7400436C69656E74546F2E
:108260004772697070657200477269707065725408
:108270006F436C69656E7400436C69656E74546F0E
:1082800053656E736F7268756200000053656E739C
:108290006F72687562546F436C69656E740000009C
:1082A000436C69656E74546F42617365636F6E747D
:1082B000726F6C6C6572000042617365636F6E74FF
:1082C000726F6C6C6572546F436C69656E740000FC
:1082D000436C69656E74546F56616375756D707526
:1082E0006D70000056616375756D70756D70546FBB
:1082F000436C69656E74000000000000454F570034
:10830000526573657400000048616E647368616B48
:108310006500000050696E670000000052656365EB
:108320006976654E756D4F6642797465730000001D
:10833000446F4C6566740000446F4C656674576901
:10834000746850776D0000005365744C6566745016
:10835000776D00004765744C65667450776D00005A
:10836000446F526967687400446F52696768745754
:1083700069746850776D000053657452696768745A
:1083800050776D00476574526967687450776D0067
:10839000446F53746F700000446F53746F7057696B
:1083A000746850776D00000053657453746F70509B
:1083B000776D000047657453746F7050776D0000DF
:1083C000446F4F70656E0000446F4F70656E576963
:1083D000746850776D0000005365744F70656E507F
:1083E000776D00004765744F70656E50776D0000C3
:1083F000446F436C6F736500446F436C6F736557D4
:1084000069746850776D0000536574436C6F7365D1
:1084100050776D00476574436C6F736550776D00DE
:108420005365744175746F4F666654696D654D731D
:10843000000000004765744175746F4F66665469AB
:108440006D654D7300000000476574437572726579
:108450006E74000047657454656D7050726F7031B2
:108460000000000047657454656D7050726F703283
:10847000000000004F70656E56616375756D507534
:108480006D700000436C6F736556616375756D5058
:10849000756D700047657456616375756D50756DC7
:1084A00070507265737375726500000004000020DF
:1084B00000000000000000000000000000000000BC
:1084C00000000000000000000000000000000000AC
:1084D000000000000000000000000000000000009C
:1084E000000000000000000000000000000000008C
:1084F000000000000000000000000000000000007C
:10850000000000000000000000000000000000006B
:108510000000000048850008597100087D710008BE
:10852000715700088D570008C15600080000000070
:108530007885000800000000000000004F77000868
:108540004F770008C15600080489000854850008C8
:10855000788500084E3131666C61746275666665B7
:108560007273313644656661756C74416C6C6F630F
:1085700061746F7245000000608900088085000802
:108580004E3131666C61746275666665727339412D
:108590006C6C6F6361746F7245000000766F696484
:1085A00020666C6174627566666572733A3A456EF0
:1085B0006469616E436865636B282900766972742B
:1085C00075616C2075696E74385F742A20666C6101
:1085D00074627566666572733A3A416C6C6F63617A
:1085E000746F723A3A7265616C6C6F636174655F47
:1085F000646F776E776172642875696E74385F7422
:108600002A2C2073697A655F742C2073697A655F00
:10861000742C2073697A655F742C2073697A655FA6
:1086200074290000766F696420666C6174627566F7
:10863000666572733A3A466C617442756666657235
:108640004275696C6465723A3A4E6F744E65737424
:10865000656428290000000073697A655F742066EC
:108660006C6174627566666572733A3A76656374B6
:108670006F725F646F776E776172643A3A656E739A
:108680007572655F73706163652873697A655F747D
:1086900029000000666C6174627566666572733AE3
:1086A0003A756F66667365745F7420666C61746298
:1086B0007566666572733A3A466C617442756666B1
:1086C00065724275696C6465723A3A456E645461CC
:1086D000626C6528666C6174627566666572733A71
:1086E0003A756F66667365745F74290075696E7498
:1086F000385F742A20666C61746275666665727391
:108700003A3A766563746F725F646F776E77617201
:10871000643A3A64617461282920636F6E7374004F
:1087200075696E74385F742A20666C617462756650
:10873000666572733A3A766563746F725F646F77D9
:108740006E776172643A3A736372617463685F64EE
:10875000617461282920636F6E73740075696E748B
:10876000385F742A20666C61746275666665727320
:108770003A3A766563746F725F646F776E77617291
:10878000643A3A736372617463685F656E64282942
:1087900020636F6E73740000766F696420666C618D
:1087A00074627566666572733A3A466C61744275B6
:1087B000666665724275696C6465723A3A46696EBE
:1087C00069736828666C6174627566666572733A6F
:1087D0003A756F66667365745F742C20636F6E7391
:1087E0007420636861722A2C20626F6F6C2900000C
:1087F000666C6174627566666572733A3A756F6627
:10880000667365745F7420666C6174627566666514
:1088100072733A3A466C6174427566666572427567
:10882000696C6465723A3A5265666572546F28667F
:108830006C6174627566666572733A3A756F6666E6
:108840007365745F74290000766F696420666C61DB
:1088500074627566666572733A3A466C6174427505
:10886000666665724275696C6465723A3A46696E0D
:108870006973686564282920636F6E737400000053
:1088800000000000000000000102030406070809C0
:108890000000000001020304A0860100400D030057
:1088A000801A060000350C0040420F0080841E0034
:1088B00000093D0000127A000024F40000366E0129
:1088C0000048E801006CDC0204890008D488000834
:1088D000288900084E31305F5F637878616269767D
:1088E0003132305F5F73695F636C6173735F74799A
:1088F00070655F696E666F45000000000000000053
:10890000C8880008597500086D750008C778000808
:10891000C7780008E17600085F7600083576000821
:10892000B9750008817500080489000834890008B9
:10893000848900084E31305F5F63787861626976C0
:108940003131375F5F636C6173735F747970655F3A
:10895000696E666F4500000000000000288900086D
:10896000A1760008B5760008C7780008C778000827
:10897000E17600085F760008C97600080B770008EA
:1089800093760008608900088C8900085374397454
:108990007970655F696E666F00000000608900088D
:1089A000AC89000860890008CC8900084E31305F2E
:1089B0005F637878616269763131355F5F666F72C7
:1089C0006365645F756E77696E6445004E31305F34
:1089D0005F637878616269763131395F5F666F72A3
:1089E0006569676E5F657863657074696F6E450071
:1089F0002C2066756E6374696F6E3A20000000006B
:108A0000617373657274696F6E202225732220660C
:108A100061696C65643A2066696C65202225732261
:108A20002C206C696E65202564257325730A00006F
:108A300043000000232D302B20000000686C4C0008
:108A40006566674546470000303132333435363786
:108A5000383941424344454600000000303132334A
:108A6000343536373839616263646566000000006A
:108A700001970181B0B008840000000005970181D2
:108A8000B0B008840000000001970181B0B00884F4
:108A9000000000004DF0FF7F84039701B0B0B00BE1
:108AA000FFFF01081E2256006A040000059701819D
:108AB000B0B008840000000029F0FF7F8405970112
:108AC000B0B0B00BFFFF01092E2C70008401040030
:108AD000000000000DF0FF7F84019701B0B0B008E6
:108AE000FFFF010001970181B0B008840000000081
:108AF00001970181B0B00884000000000397018154
:108B0000B0B008840000000001970181B0B0088473
:108B10000000000001970181B0B00884000000004F
:108B200001970181B0B00884000000000397018123
:108B3000B0B008840000000003970181B0B0088441
:108B40000000000001970181B0B00884000000001F
:108B500005970181B0B008840000000085EFFF7F19
:108B600084039701B0B0B008FFFF0108580460000B
:108B70006804000001970181B0B008840000000083
:108B800001970181B0B008840000000002970181C4
:108B9000B0B009840000000003970181B0B00884E0
:108BA0000000000005970181B0B0088400000000BB
:108BB00001970181B0B00884000000000197018195
:108BC000B0B008840000000001970181B0B00884B3
:108BD0000000000010970181B0B00984000000007F
:108BE00004970181B0B0098400000000039701815F
:108BF000B0B008840000000002970181B0B0098481
:108C00000000000003970181B0B00884000000005C
:108C100001970181B0B00884000000000197018134
:108C2000B0B008840000000001970181B0B0088452
:108C30000000000001970181B0B00884000000002E
:108C400001970181B0B00884000000000197018104
:108C5000B0B008840000000001970181B0B0088422
:108C60000000000001970181B0B0088400000000FE
:108C700001970181B0B008840000000003970181D2
:108C8000B0B008840000000001970181B0B00884F2
:108C90000000000001970181B0B0088400000000CE
:108CA00041EEFF7F84019701B0B0B00BFFFF010CD4
:108CB000280400003A0442004C040000019701819E
:108CC000B0B008840000000005970181B0B00884AE
:108CD0000000000001970181B0B00884000000008E
:108CE00001970181B0B00884000000000197018164
:108CF000B0B008840000000001970181B0B0088482
:108D000000000000DDEDFF7F843F9701B0B0B008A8
:108D1000FFFF0114063400004004B6020050CE01EB
:108D2000AC0200C0020400002B970181B0B008849F
:108D30000000000007970181B0B008840000000027
:108D4000A1EDFF7F84019701B0B0B008FFFF0100E3
:108D500001970181B0B008840000000003970181F1
:108D6000B0B008840000000001970181B0B0088411
:108D70000000000003970181B0B0088400000000EB
:108D800005970181B0B008840000000005970181BB
:108D9000B0B008840000000001970181B0B00884E1
:108DA0000000000003970181B0B0088400000000BB
:108DB00003970181B0B00884000000000197018191
:108DC000B0B008840000000001970181B0B00884B1
:108DD0000000000001970181B0B00884000000008D
:108DE00001EDFF7F84029701B0B0B009FFFF0100E1
:108DF000F1ECFF7F84019701B0B0B008FFFF0100E4
:108E000008B10181B0B000840000000008B1018108
:088E1000B0B000840000000076
:108E18007C74FF7F01000000EC77FF7FB0A902801F
:108E28008478FF7FB0B0A880D478FF7F010000006D
:108E3800E078FF7FB0B0AA801879FF7FAE71B2806A
:108E4800E879FF7F01000000E479FF7FAB3F3880BD
:108E58003C7AFF7F01000000487AFF7FB0B0AA800B
:108E6800847AFF7F01000000387BFF7FAB0EB28061
:108E7800A07BFF7FB0AF0A80687EFF7F0100000003
:108E88006C7EFF7FAB3F0480AC80FF7F0100000059
:108E98008882FF7F008404809C82FF7F010000009D
:108EA8009882FF7FB0AD04806085FF7FB0A8038003
:108EB8008085FF7F44FFFF7F8485FF7F48FFFF7F1A
:108EC8009085FF7F010000007CC7FF7F9CFBFF7F30
:108ED800A8C7FF7F01000000E0C7FF7F98FBFF7F66
:108EE8004CC8FF7F0100000080C8FF7F94FBFF7F14
:108EF80094C8FF7F01000000F0C8FF7F90FBFF7F50
:108F08005EC9FF7FA0FBFF7FA8C9FF7FA4FBFF7F8F
:108F180030CAFF7F0100000072CAFF7FB0FBFF7FED
:108F280088CAFF7F01000000E0CAFF7FB0FBFF7F17
:108F380008CBFF7FB4FBFF7F88CBFF7FB8FBFF7FA9
:108F4800B0CBFF7F01000000ECCBFF7FB4FBFF7FBD
:108F58001CCCFF7FB8FBFF7F4CCCFF7FBCFBFF7FA7
:108F68007CCCFF7F0100000096CCFF7FB8FBFF7F21
:108F7800B6CCFF7FBCFBFF7FE8CCFF7FC0FBFF7F49
:108F880006CDFF7F0100000040CDFF7FBCFBFF7FC7
:108F980006CEFF7F010000002ECEFF7FB8FBFF7FCB
:108FA8009ACEFF7F01000000FCCEFF7FC0FBFF7F51
:108FB80014CFFF7FC4FBFF7F40CFFF7F010000007D
:108FC8005CCFFF7FC0FBFF7F8CCFFF7FC4FBFF7FA1
:108FD800A4CFFF7FC8FBFF7FECCFFF7FCCFBFF7FD9
:108FE8003CD0FF7FD0FBFF7F88D0FF7FD4FBFF7F83
:108FF800A8D0FF7FD8FBFF7FF8D2FF7F01000000D9
:109008001CD3FF7FD4FBFF7F50D3FF7FD8FBFF7FAC
:10901800F8D3FF7FDCFBFF7F10D4FF7FE0FBFF7FEF
:109028004AD4FF7FE4FBFF7F62D4FF7FE8FBFF7F2A
:109038007AD4FF7FECFBFF7F90D4FF7FF0FBFF7FAC
:10904800A6D4FF7FF4FBFF7FC0D4FF7FF8FBFF7F30
:10905800DAD4FF7FFCFBFF7FF2D4FF7F00FCFF7FA9
:109068000AD5FF7F04FCFF7F2CD5FF7F08FCFF7F1C
:1090780056D5FF7F0CFCFF7F66D5FF7F10FCFF7F76
:109088007AD5FF7F14FCFF7FCAD5FF7F010000005F
:10909800DED5FF7F20FCFF7FFAD5FF7F24FCFF7F12
:1090A80086D6FF7F28FCFF7FA2D6FF7F2CFCFF7FA0
:1090B800BED6FF7F30FCFF7FDCD6FF7F34FCFF7F0E
:1090C800FCD6FF7F38FCFF7F44D8FF7F54FCFF7F2E
:1090D8006CD9FF7F0884978034DAFF7F50FCFF7FCC
:1090E800C0DAFF7F0100000016DBFF7F4CFCFF7F2A
:1090F80038DBFF7F54FCFF7F64DBFF7F010000004B
:1091080084DBFF7F50FCFF7FBCDBFF7F010000009A
:10911800F4DBFF7F4CFCFF7F1ADCFF7F01000000BF
:1091280030DCFF7F48FCFF7F68DCFF7F0100000028
:109138007CDCFF7F44FCFF7FB0DCFF7F48FCFF7FC7
:1091480002DDFF7F0100000016DDFF7F44FCFF7F8A
:1091580026DDFF7F48FCFF7F3EDDFF7F010000002A
:109168004EDDFF7F44FCFF7F84DDFF7F01000000B0
:10917800B8DDFF7F40FCFF7FD4DDFF7F01000000EA
:10918800F4DDFF7F3CFCFF7F10DEFF7F0100000065
:109198002ADEFF7F38FCFF7F46DEFF7F01000000EC
:1091A800A0DEFF7F34FCFF7FC2DEFF7F3CFCFF7F39
:0891B800DEDEFF7F0100000074
:0891C0002D0200080000000070
:0891C800050200080000000090
:1091D0000400002000000000F0840008D084000893
:1091E000B084000800000000000000000000000043
:1091F00000000000308A00080000000000000000AD
:10920000000000000000000000000000000000005E
:10921000000000000000000000000000000000004E
:10922000000000000000000000000000000000003E
:1092300000000000100000000100000000093D00D7
:08924000797E00086D1400089E
:040000050800750575
:00000001FF
